{
  "contractName": "DomainRegistrar",
  "abi": [
    {
      "inputs": [],
      "payable": false,
      "stateMutability": "nonpayable",
      "type": "constructor"
    },
    {
      "anonymous": false,
      "inputs": [
        {
          "indexed": false,
          "internalType": "string",
          "name": "domainName",
          "type": "string"
        },
        {
          "indexed": false,
          "internalType": "address",
          "name": "owner",
          "type": "address"
        }
      ],
      "name": "DomainRegistered",
      "type": "event"
    },
    {
      "anonymous": false,
      "inputs": [
        {
          "indexed": false,
          "internalType": "string",
          "name": "domainName",
          "type": "string"
        },
        {
          "indexed": false,
          "internalType": "address",
          "name": "owner",
          "type": "address"
        }
      ],
      "name": "DomainUnregistered",
      "type": "event"
    },
    {
      "constant": true,
      "inputs": [
        {
          "internalType": "string",
          "name": "",
          "type": "string"
        }
      ],
      "name": "domains",
      "outputs": [
        {
          "internalType": "bool",
          "name": "",
          "type": "bool"
        }
      ],
      "payable": false,
      "stateMutability": "view",
      "type": "function"
    },
    {
      "constant": false,
      "inputs": [
        {
          "internalType": "string",
          "name": "_domainName",
          "type": "string"
        }
      ],
      "name": "registerDomain",
      "outputs": [],
      "payable": false,
      "stateMutability": "nonpayable",
      "type": "function"
    },
    {
      "constant": false,
      "inputs": [
        {
          "internalType": "string",
          "name": "_domainName",
          "type": "string"
        },
        {
          "internalType": "uint256",
          "name": "_domainIndex",
          "type": "uint256"
        }
      ],
      "name": "unregisterDomain",
      "outputs": [],
      "payable": false,
      "stateMutability": "nonpayable",
      "type": "function"
    },
    {
      "constant": true,
      "inputs": [
        {
          "internalType": "uint256",
          "name": "_index",
          "type": "uint256"
        }
      ],
      "name": "getDomain",
      "outputs": [
        {
          "internalType": "string",
          "name": "domainName",
          "type": "string"
        },
        {
          "internalType": "address",
          "name": "owner",
          "type": "address"
        }
      ],
      "payable": false,
      "stateMutability": "view",
      "type": "function"
    },
    {
      "constant": true,
      "inputs": [],
      "name": "getDomainsLength",
      "outputs": [
        {
          "internalType": "uint256",
          "name": "count",
          "type": "uint256"
        }
      ],
      "payable": false,
      "stateMutability": "view",
      "type": "function"
    }
  ],
  "bytecode": "0x608060405234801561001057600080fd5b50610baf806100206000396000f3fe608060405234801561001057600080fd5b50600436106100575760003560e01c80631243d5c11461005c5780631a7a98e21461010657806326449235146101b45780636c07d84c1461026e578063a5cad08a14610288575b600080fd5b6101046004803603604081101561007257600080fd5b81019060208101813564010000000081111561008d57600080fd5b82018360208201111561009f57600080fd5b803590602001918460018302840111640100000000831117156100c157600080fd5b91908080601f016020809104026020016040519081016040528093929190818152602001838380828437600092019190915250929550509135925061032e915050565b005b6101236004803603602081101561011c57600080fd5b503561066c565b6040518080602001836001600160a01b03166001600160a01b03168152602001828103825284818151815260200191508051906020019080838360005b83811015610178578181015183820152602001610160565b50505050905090810190601f1680156101a55780820380516001836020036101000a031916815260200191505b50935050505060405180910390f35b61025a600480360360208110156101ca57600080fd5b8101906020810181356401000000008111156101e557600080fd5b8201836020820111156101f757600080fd5b8035906020019184600183028401116401000000008311171561021957600080fd5b91908080601f016020809104026020016040519081016040528093929190818152602001838380828437600092019190915250929550610749945050505050565b604080519115158252519081900360200190f35b610276610769565b60408051918252519081900360200190f35b6101046004803603602081101561029e57600080fd5b8101906020810181356401000000008111156102b957600080fd5b8201836020820111156102cb57600080fd5b803590602001918460018302840111640100000000831117156102ed57600080fd5b91908080601f016020809104026020016040519081016040528093929190818152602001838380828437600092019190915250929550610770945050505050565b6001826040518082805190602001908083835b602083106103605780518252601f199092019160209182019101610341565b51815160001960209485036101000a0190811690199190911617905292019485525060405193849003019092205460ff16151560011491506103eb9050576040805162461bcd60e51b815260206004820152601860248201527f646f6d61696e206973206e6f7420726567697374657265640000000000000000604482015290519081900360640190fd5b336001600160a01b03166000828154811061040257fe5b60009182526020909120600160029092020101546001600160a01b031614610467576040805162461bcd60e51b81526020600482015260136024820152723737ba1037bbb732b91037b3103237b6b0b4b760691b604482015290519081900360640190fd5b60006001836040518082805190602001908083835b6020831061049b5780518252601f19909201916020918201910161047c565b51815160001960209485036101000a810191821691199290921617909152939091019586526040519586900301909420805495151560ff199096169590951790945550506000805490928101915081106104f157fe5b90600052602060002090600202016000828154811061050c57fe5b60009182526020909120825460029283029091019161053d91839185916000196101006001831615020116046109c0565b50600191820154910180546001600160a01b0319166001600160a01b0390921691909117905560008054600019810190811061057557fe5b6000918252602082206002909102019061058f8282610a45565b5060010180546001600160a01b031916905560008054906105b4906000198301610a8c565b507f9e5d8d0d10c6cdcb755413d52682132b83c300e69df3c6ef4c8af1f3d9e2486382336040518080602001836001600160a01b03166001600160a01b03168152602001828103825284818151815260200191508051906020019080838360005b8381101561062d578181015183820152602001610615565b50505050905090810190601f16801561065a5780820380516001836020036101000a031916815260200191505b50935050505060405180910390a15050565b6060600080838154811061067c57fe5b60009182526020918290206002918202018054604080516001831615610100026000190190921693909304601f81018590048502820185019093528281529290919083018282801561070f5780601f106106e45761010080835404028352916020019161070f565b820191906000526020600020905b8154815290600101906020018083116106f257829003601f168201915b505050505091506000838154811061072357fe5b600091825260209091206001600290920201015491936001600160a01b03909216925050565b805160208183018101805160018252928201919093012091525460ff1681565b6000545b90565b6001816040518082805190602001908083835b602083106107a25780518252601f199092019160209182019101610783565b51815160209384036101000a600019018019909216911617905292019485525060405193849003019092205460ff161591506108279050576040805162461bcd60e51b815260206004820152601960248201527f646f6d61696e20616c7265616479207265676973746572656400000000000000604482015290519081900360640190fd5b600180826040518082805190602001908083835b6020831061085a5780518252601f19909201916020918201910161083b565b51815160209384036101000a6000190180199092169116179052920194855250604080519485900382018520805460ff1916961515969096179095558385019094525050828152338183015260008054600181018083559180528251805192947f290decd9548b62a8d60345a988386fc84ba6bc95484008f6362f93160ef3e563600290930292909201926108f29284920190610abd565b5060209182015160019190910180546001600160a01b0319166001600160a01b03909216919091179055604080513381840181905282825285519282019290925284517f70f2ff07e8136617cdfb0433423063c9dd697c507560d7860cce09fa86874a12945085938291606083019186019080838360005b8381101561098257818101518382015260200161096a565b50505050905090810190601f1680156109af5780820380516001836020036101000a031916815260200191505b50935050505060405180910390a150565b828054600181600116156101000203166002900490600052602060002090601f016020900481019282601f106109f95780548555610a35565b82800160010185558215610a3557600052602060002091601f016020900482015b82811115610a35578254825591600101919060010190610a1a565b50610a41929150610b2b565b5090565b50805460018160011615610100020316600290046000825580601f10610a6b5750610a89565b601f016020900490600052602060002090810190610a899190610b2b565b50565b815481835581811115610ab857600202816002028360005260206000209182019101610ab89190610b45565b505050565b828054600181600116156101000203166002900490600052602060002090601f016020900481019282601f10610afe57805160ff1916838001178555610a35565b82800160010185558215610a35579182015b82811115610a35578251825591602001919060010190610b10565b61076d91905b80821115610a415760008155600101610b31565b61076d91905b80821115610a41576000610b5f8282610a45565b506001810180546001600160a01b0319169055600201610b4b56fea265627a7a7231582069cd410ffee99e339926be7fc29fcd8d2ad514bdf7ee5d5a2b3e25a7238bff2064736f6c63430005100032",
  "source": "pragma solidity ^0.5.0;\r\n\r\ncontract DomainRegistrar {\r\n\r\n  Domain[] registeredDomains;\r\n\r\n  struct Domain {\r\n    string domainName;\r\n    address owner;\r\n  }\r\n\r\n  mapping(string => bool) public domains;\r\n\r\n  event DomainRegistered(\r\n    string domainName,\r\n    address owner\r\n  );\r\n\r\n  event DomainUnregistered(\r\n    string domainName,\r\n    address owner\r\n  );\r\n\r\n  constructor() public {\r\n  }\r\n\r\n  function registerDomain(string memory _domainName) public {\r\n    require(domains[_domainName] == false,\"domain already registered\");\r\n    domains[_domainName] = true;\r\n    registeredDomains.push(Domain(_domainName,msg.sender));\r\n    emit DomainRegistered(_domainName,msg.sender);\r\n  }\r\n  function unregisterDomain(string memory _domainName , uint _domainIndex) public {\r\n    require(domains[_domainName] == true,\"domain is not registered\");\r\n    require(registeredDomains[_domainIndex].owner == msg.sender,\"not owner of domain\");\r\n    //swap the array element at _index with the last element and then remove the last element(which used to be at _index)\r\n    domains[_domainName] = false;\r\n    registeredDomains[_domainIndex] = registeredDomains[registeredDomains.length-1];\r\n    delete registeredDomains[registeredDomains.length-1];\r\n    registeredDomains.length--;\r\n    emit DomainUnregistered(_domainName,msg.sender);\r\n  }\r\n\r\n  //returns the registered domain information in the array registeredDomains at the index _index\r\n    function getDomain(uint _index) public view\r\n    returns(string memory domainName,address owner){\r\n        domainName = registeredDomains[_index].domainName;\r\n        owner = registeredDomains[_index].owner;\r\n    }\r\n    //returns the number of registered domains\r\n    function getDomainsLength() public view returns(uint count) {\r\n        return registeredDomains.length;\r\n    }\r\n}\r\n",
  "sourcePath": "C:/Users/Owner/Desktop/eth-todo-list-master/contracts/DomainRegistrar.sol",
  "compiler": {
    "name": "solc",
    "version": "0.5.16+commit.9c3226ce.Emscripten.clang"
  },
  "schemaVersion": "3.3.1",
  "updatedAt": "2020-11-01T09:05:02.861Z",
  "networkType": "ethereum",
  "devdoc": {
    "methods": {}
  },
  "userdoc": {
    "methods": {}
  }
}