{
  "contractName": "Bid",
  "abi": [
    {
      "inputs": [
        {
          "internalType": "uint256",
          "name": "_amount",
          "type": "uint256"
        },
        {
          "internalType": "address",
          "name": "_bidder",
          "type": "address"
        }
      ],
      "payable": false,
      "stateMutability": "nonpayable",
      "type": "constructor"
    },
    {
      "constant": true,
      "inputs": [],
      "name": "amount",
      "outputs": [
        {
          "internalType": "uint256",
          "name": "",
          "type": "uint256"
        }
      ],
      "payable": false,
      "stateMutability": "view",
      "type": "function"
    },
    {
      "constant": true,
      "inputs": [],
      "name": "bidder",
      "outputs": [
        {
          "internalType": "address",
          "name": "",
          "type": "address"
        }
      ],
      "payable": false,
      "stateMutability": "view",
      "type": "function"
    },
    {
      "constant": true,
      "inputs": [],
      "name": "GetAmount",
      "outputs": [
        {
          "internalType": "uint256",
          "name": "",
          "type": "uint256"
        }
      ],
      "payable": false,
      "stateMutability": "view",
      "type": "function"
    }
  ],
  "bytecode": "0x608060405234801561001057600080fd5b506040516101d23803806101d28339818101604052604081101561003357600080fd5b8101908080519060200190929190805190602001909291905050508160008190555080600160006101000a81548173ffffffffffffffffffffffffffffffffffffffff021916908373ffffffffffffffffffffffffffffffffffffffff160217905550505061012b806100a76000396000f3fe6080604052348015600f57600080fd5b5060043610603c5760003560e01c806380a1bbda146041578063aa8c217c14605d578063f496d882146079575b600080fd5b604760c1565b6040518082815260200191505060405180910390f35b606360ca565b6040518082815260200191505060405180910390f35b607f60d0565b604051808273ffffffffffffffffffffffffffffffffffffffff1673ffffffffffffffffffffffffffffffffffffffff16815260200191505060405180910390f35b60008054905090565b60005481565b600160009054906101000a900473ffffffffffffffffffffffffffffffffffffffff168156fea265627a7a723158208a64c07a1b0780ec2709b13542e4ac1e75c20ff08f19e8a2899c5f24d5013eaf64736f6c63430005100032",
  "source": "pragma solidity >0.4.2;\r\n\r\ncontract Bid {\r\n\r\n    uint public amount;\r\n    address public bidder ;\r\n\r\n    constructor(uint _amount, address _bidder) public {\r\n    amount = _amount;\r\n    bidder = _bidder;\r\n    }\r\n\r\n    function GetAmount() public view returns(uint){\r\n        return amount;\r\n    }\r\n\r\n}",
  "sourcePath": "D:\\GitHub\\4153Dapp\\contracts\\Bid.sol",
  "compiler": {
    "name": "solc",
    "version": "0.5.16+commit.9c3226ce.Emscripten.clang"
  },
  "schemaVersion": "3.3.1",
  "updatedAt": "2020-11-02T12:47:12.655Z",
  "devdoc": {
    "methods": {}
  },
  "userdoc": {
    "methods": {}
  }
}