{
  "contractName": "Bid_Event",
  "abi": [
    {
      "inputs": [
        {
          "internalType": "uint256",
          "name": "_cur_highest_price",
          "type": "uint256"
        },
        {
          "internalType": "string",
          "name": "_domain_name",
          "type": "string"
        }
      ],
      "payable": false,
      "stateMutability": "nonpayable",
      "type": "constructor"
    },
    {
      "constant": true,
      "inputs": [
        {
          "internalType": "address",
          "name": "",
          "type": "address"
        }
      ],
      "name": "bids",
      "outputs": [
        {
          "internalType": "contract Bid",
          "name": "",
          "type": "address"
        }
      ],
      "payable": false,
      "stateMutability": "view",
      "type": "function"
    },
    {
      "constant": true,
      "inputs": [],
      "name": "bit_count",
      "outputs": [
        {
          "internalType": "uint256",
          "name": "",
          "type": "uint256"
        }
      ],
      "payable": false,
      "stateMutability": "view",
      "type": "function"
    },
    {
      "constant": true,
      "inputs": [],
      "name": "createTime",
      "outputs": [
        {
          "internalType": "uint256",
          "name": "",
          "type": "uint256"
        }
      ],
      "payable": false,
      "stateMutability": "view",
      "type": "function"
    },
    {
      "constant": true,
      "inputs": [],
      "name": "cur_highest_address",
      "outputs": [
        {
          "internalType": "address",
          "name": "",
          "type": "address"
        }
      ],
      "payable": false,
      "stateMutability": "view",
      "type": "function"
    },
    {
      "constant": true,
      "inputs": [],
      "name": "cur_highest_price",
      "outputs": [
        {
          "internalType": "uint256",
          "name": "",
          "type": "uint256"
        }
      ],
      "payable": false,
      "stateMutability": "view",
      "type": "function"
    },
    {
      "constant": true,
      "inputs": [],
      "name": "domain_name",
      "outputs": [
        {
          "internalType": "string",
          "name": "",
          "type": "string"
        }
      ],
      "payable": false,
      "stateMutability": "view",
      "type": "function"
    },
    {
      "constant": true,
      "inputs": [],
      "name": "ongoing",
      "outputs": [
        {
          "internalType": "bool",
          "name": "",
          "type": "bool"
        }
      ],
      "payable": false,
      "stateMutability": "view",
      "type": "function"
    },
    {
      "constant": false,
      "inputs": [
        {
          "internalType": "uint256",
          "name": "_price",
          "type": "uint256"
        },
        {
          "internalType": "address payable",
          "name": "_bidder",
          "type": "address"
        }
      ],
      "name": "addBid",
      "outputs": [
        {
          "internalType": "bool",
          "name": "added",
          "type": "bool"
        }
      ],
      "payable": false,
      "stateMutability": "nonpayable",
      "type": "function"
    },
    {
      "constant": true,
      "inputs": [
        {
          "internalType": "address",
          "name": "_sender",
          "type": "address"
        }
      ],
      "name": "getBidAmount",
      "outputs": [
        {
          "internalType": "uint256",
          "name": "amount",
          "type": "uint256"
        }
      ],
      "payable": false,
      "stateMutability": "view",
      "type": "function"
    },
    {
      "constant": false,
      "inputs": [],
      "name": "endBidGetWinner",
      "outputs": [
        {
          "internalType": "address",
          "name": "highest_address",
          "type": "address"
        }
      ],
      "payable": false,
      "stateMutability": "nonpayable",
      "type": "function"
    },
    {
      "constant": true,
      "inputs": [],
      "name": "getWinnerPrice",
      "outputs": [
        {
          "internalType": "uint256",
          "name": "amount",
          "type": "uint256"
        }
      ],
      "payable": false,
      "stateMutability": "view",
      "type": "function"
    },
    {
      "constant": true,
      "inputs": [],
      "name": "getTime",
      "outputs": [
        {
          "internalType": "uint256",
          "name": "amount",
          "type": "uint256"
        }
      ],
      "payable": false,
      "stateMutability": "view",
      "type": "function"
    }
  ],
  "bytecode": "0x608060405234801561001057600080fd5b50604051610bdf380380610bdf8339818101604052604081101561003357600080fd5b81019080805190602001909291908051604051939291908464010000000082111561005d57600080fd5b8382019150602082018581111561007357600080fd5b825186600182028301116401000000008211171561009057600080fd5b8083526020830192505050908051906020019080838360005b838110156100c45780820151818401526020810190506100a9565b50505050905090810190601f1680156100f15780820380516001836020036101000a031916815260200191505b506040525050508160018190555033600260016101000a81548173ffffffffffffffffffffffffffffffffffffffff021916908373ffffffffffffffffffffffffffffffffffffffff1602179055508060009080519060200190610156929190610191565b50426003819055506001600260006101000a81548160ff02191690831515021790555060016005600082825401925050819055505050610236565b828054600181600116156101000203166002900490600052602060002090601f016020900481019282601f106101d257805160ff1916838001178555610200565b82800160010185558215610200579182015b828111156101ff5782518255916020019190600101906101e4565b5b50905061020d9190610211565b5090565b61023391905b8082111561022f576000816000905550600101610217565b5090565b90565b61099a806102456000396000f3fe608060405234801561001057600080fd5b50600436106100b45760003560e01c8063557ed1ba11610071578063557ed1ba1461028457806361dcd7ab146102a257806362ea82db146102c0578063709b001014610344578063b0aa2a761461038e578063dadd2619146103ac576100b4565b8063056e5e81146100b95780630a42d91f1461011f57806313b9b598146101a25780631ba2b5ef146101fa5780631ff11f54146102185780635507ab731461023a575b600080fd5b610105600480360360408110156100cf57600080fd5b8101908080359060200190929190803573ffffffffffffffffffffffffffffffffffffffff1690602001909291905050506103ca565b604051808215151515815260200191505060405180910390f35b610127610524565b6040518080602001828103825283818151815260200191508051906020019080838360005b8381101561016757808201518184015260208101905061014c565b50505050905090810190601f1680156101945780820380516001836020036101000a031916815260200191505b509250505060405180910390f35b6101e4600480360360208110156101b857600080fd5b81019080803573ffffffffffffffffffffffffffffffffffffffff1690602001909291905050506105c2565b6040518082815260200191505060405180910390f35b6102026106b0565b6040518082815260200191505060405180910390f35b6102206106b6565b604051808215151515815260200191505060405180910390f35b6102426106c9565b604051808273ffffffffffffffffffffffffffffffffffffffff1673ffffffffffffffffffffffffffffffffffffffff16815260200191505060405180910390f35b61028c6106ef565b6040518082815260200191505060405180910390f35b6102aa6106f9565b6040518082815260200191505060405180910390f35b610302600480360360208110156102d657600080fd5b81019080803573ffffffffffffffffffffffffffffffffffffffff1690602001909291905050506106ff565b604051808273ffffffffffffffffffffffffffffffffffffffff1673ffffffffffffffffffffffffffffffffffffffff16815260200191505060405180910390f35b61034c610732565b604051808273ffffffffffffffffffffffffffffffffffffffff1673ffffffffffffffffffffffffffffffffffffffff16815260200191505060405180910390f35b610396610776565b6040518082815260200191505060405180910390f35b6103b461077c565b6040518082815260200191505060405180910390f35b60008083836040516103db90610786565b808381526020018273ffffffffffffffffffffffffffffffffffffffff1673ffffffffffffffffffffffffffffffffffffffff16815260200192505050604051809103906000f080158015610434573d6000803e3d6000fd5b50905080600460008573ffffffffffffffffffffffffffffffffffffffff1673ffffffffffffffffffffffffffffffffffffffff16815260200190815260200160002060006101000a81548173ffffffffffffffffffffffffffffffffffffffff021916908373ffffffffffffffffffffffffffffffffffffffff160217905550836001541015610508578360018190555082600260016101000a81548173ffffffffffffffffffffffffffffffffffffffff021916908373ffffffffffffffffffffffffffffffffffffffff1602179055505b6001600560008282540192505081905550600191505092915050565b60008054600181600116156101000203166002900480601f0160208091040260200160405190810160405280929190818152602001828054600181600116156101000203166002900480156105ba5780601f1061058f576101008083540402835291602001916105ba565b820191906000526020600020905b81548152906001019060200180831161059d57829003601f168201915b505050505081565b600080600460008473ffffffffffffffffffffffffffffffffffffffff1673ffffffffffffffffffffffffffffffffffffffff16815260200190815260200160002060009054906101000a900473ffffffffffffffffffffffffffffffffffffffff1690508073ffffffffffffffffffffffffffffffffffffffff1663aa8c217c6040518163ffffffff1660e01b815260040160206040518083038186803b15801561066d57600080fd5b505afa158015610681573d6000803e3d6000fd5b505050506040513d602081101561069757600080fd5b8101908080519060200190929190505050915050919050565b60015481565b600260009054906101000a900460ff1681565b600260019054906101000a900473ffffffffffffffffffffffffffffffffffffffff1681565b6000600354905090565b60035481565b60046020528060005260406000206000915054906101000a900473ffffffffffffffffffffffffffffffffffffffff1681565b600080600260006101000a81548160ff021916908315150217905550600260019054906101000a900473ffffffffffffffffffffffffffffffffffffffff16905090565b60055481565b6000600154905090565b6101d2806107948339019056fe608060405234801561001057600080fd5b506040516101d23803806101d28339818101604052604081101561003357600080fd5b8101908080519060200190929190805190602001909291905050508160008190555080600160006101000a81548173ffffffffffffffffffffffffffffffffffffffff021916908373ffffffffffffffffffffffffffffffffffffffff160217905550505061012b806100a76000396000f3fe6080604052348015600f57600080fd5b5060043610603c5760003560e01c806380a1bbda146041578063aa8c217c14605d578063f496d882146079575b600080fd5b604760c1565b6040518082815260200191505060405180910390f35b606360ca565b6040518082815260200191505060405180910390f35b607f60d0565b604051808273ffffffffffffffffffffffffffffffffffffffff1673ffffffffffffffffffffffffffffffffffffffff16815260200191505060405180910390f35b60008054905090565b60005481565b600160009054906101000a900473ffffffffffffffffffffffffffffffffffffffff168156fea265627a7a723158208a64c07a1b0780ec2709b13542e4ac1e75c20ff08f19e8a2899c5f24d5013eaf64736f6c63430005100032a265627a7a723158209d4566dd10c56c124aecbbba3998262d2110d9d3105bd57fb051b184811abe9a64736f6c63430005100032",
  "source": "pragma solidity >0.4.2;\r\n\r\nimport './Bid.sol';\r\n\r\ncontract Bid_Event {\r\n\r\n    string public domain_name;\r\n    uint public cur_highest_price;\r\n    bool public ongoing;\r\n    address public cur_highest_address;\r\n    uint public createTime;\r\n\r\n    mapping(address => Bid) public bids;  // Address = 0x001d3f1ef827552ae1114027bd3ecf1f086ba0f9   address owner = 0xc0ffee254729296a45a3885639AC7E10F9d54979\r\n    \r\n    uint public bit_count;\r\n\r\n    constructor(uint _cur_highest_price, string memory _domain_name) public {\r\n        cur_highest_price = _cur_highest_price;\r\n        cur_highest_address = msg.sender;\r\n        domain_name = _domain_name; \r\n        createTime = block.timestamp;\r\n        ongoing = true;\r\n        bit_count += 1;\r\n    }\r\n\r\n    function addBid(uint _price, address payable _bidder) public returns(bool added) {\r\n        Bid bid = new Bid(_price, _bidder);\r\n        bids[_bidder] = bid;\r\n        // add price it to sender balanace\r\n        // update the currentPrice\r\n        if (cur_highest_price < _price){\r\n            cur_highest_price = _price;\r\n            cur_highest_address = _bidder;\r\n        }\r\n        bit_count += 1;\r\n        return true;\r\n    }\r\n\r\n    function getBidAmount(address _sender) public view returns(uint amount) {\r\n     Bid bid = bids[_sender];\r\n     return bid.amount();\r\n    }\r\n    \r\n    function endBidGetWinner() public returns( address highest_address){\r\n        ongoing = false;\r\n        return cur_highest_address; \r\n    }\r\n\r\n    function getWinnerPrice() public view returns (uint amount){\r\n        return cur_highest_price;\r\n    }\r\n\r\n    function getTime() public view returns (uint amount){\r\n        return createTime;\r\n    }\r\n}",
  "sourcePath": "D:\\GitHub\\4153Dapp\\contracts\\Bid_Event.sol",
  "compiler": {
    "name": "solc",
    "version": "0.5.16+commit.9c3226ce.Emscripten.clang"
  },
  "schemaVersion": "3.3.1",
  "updatedAt": "2020-11-02T12:47:12.658Z",
  "devdoc": {
    "methods": {}
  },
  "userdoc": {
    "methods": {}
  }
}