{
  "contractName": "Bid_Event",
  "abi": [
    {
      "inputs": [
        {
          "internalType": "uint256",
          "name": "_cur_highest_price",
          "type": "uint256"
        },
        {
          "internalType": "string",
          "name": "_domain_name",
          "type": "string"
        }
      ],
      "payable": false,
      "stateMutability": "nonpayable",
      "type": "constructor"
    },
    {
      "constant": true,
      "inputs": [
        {
          "internalType": "address",
          "name": "",
          "type": "address"
        }
      ],
      "name": "bids",
      "outputs": [
        {
          "internalType": "contract Bid",
          "name": "",
          "type": "address"
        }
      ],
      "payable": false,
      "stateMutability": "view",
      "type": "function"
    },
    {
      "constant": true,
      "inputs": [],
      "name": "bit_count",
      "outputs": [
        {
          "internalType": "uint256",
          "name": "",
          "type": "uint256"
        }
      ],
      "payable": false,
      "stateMutability": "view",
      "type": "function"
    },
    {
      "constant": true,
      "inputs": [],
      "name": "createTime",
      "outputs": [
        {
          "internalType": "uint256",
          "name": "",
          "type": "uint256"
        }
      ],
      "payable": false,
      "stateMutability": "view",
      "type": "function"
    },
    {
      "constant": true,
      "inputs": [],
      "name": "cur_highest_address",
      "outputs": [
        {
          "internalType": "address",
          "name": "",
          "type": "address"
        }
      ],
      "payable": false,
      "stateMutability": "view",
      "type": "function"
    },
    {
      "constant": true,
      "inputs": [],
      "name": "cur_highest_price",
      "outputs": [
        {
          "internalType": "uint256",
          "name": "",
          "type": "uint256"
        }
      ],
      "payable": false,
      "stateMutability": "view",
      "type": "function"
    },
    {
      "constant": true,
      "inputs": [],
      "name": "domain_name",
      "outputs": [
        {
          "internalType": "string",
          "name": "",
          "type": "string"
        }
      ],
      "payable": false,
      "stateMutability": "view",
      "type": "function"
    },
    {
      "constant": true,
      "inputs": [],
      "name": "ongoing",
      "outputs": [
        {
          "internalType": "bool",
          "name": "",
          "type": "bool"
        }
      ],
      "payable": false,
      "stateMutability": "view",
      "type": "function"
    },
    {
      "constant": true,
      "inputs": [],
      "name": "overbid_count",
      "outputs": [
        {
          "internalType": "uint256",
          "name": "",
          "type": "uint256"
        }
      ],
      "payable": false,
      "stateMutability": "view",
      "type": "function"
    },
    {
      "constant": false,
      "inputs": [
        {
          "internalType": "uint256",
          "name": "_price",
          "type": "uint256"
        },
        {
          "internalType": "address",
          "name": "_bidder",
          "type": "address"
        }
      ],
      "name": "addBid",
      "outputs": [
        {
          "internalType": "bool",
          "name": "added",
          "type": "bool"
        }
      ],
      "payable": false,
      "stateMutability": "nonpayable",
      "type": "function"
    },
    {
      "constant": true,
      "inputs": [
        {
          "internalType": "address",
          "name": "_sender",
          "type": "address"
        }
      ],
      "name": "getBidAmount",
      "outputs": [
        {
          "internalType": "uint256",
          "name": "amount",
          "type": "uint256"
        }
      ],
      "payable": false,
      "stateMutability": "view",
      "type": "function"
    },
    {
      "constant": false,
      "inputs": [],
      "name": "endBidGetWinner",
      "outputs": [
        {
          "internalType": "address",
          "name": "highest_address",
          "type": "address"
        }
      ],
      "payable": false,
      "stateMutability": "nonpayable",
      "type": "function"
    },
    {
      "constant": true,
      "inputs": [],
      "name": "getWinnerPrice",
      "outputs": [
        {
          "internalType": "uint256",
          "name": "amount",
          "type": "uint256"
        }
      ],
      "payable": false,
      "stateMutability": "view",
      "type": "function"
    },
    {
      "constant": true,
      "inputs": [],
      "name": "getTime",
      "outputs": [
        {
          "internalType": "uint256",
          "name": "amount",
          "type": "uint256"
        }
      ],
      "payable": false,
      "stateMutability": "view",
      "type": "function"
    },
    {
      "constant": true,
      "inputs": [],
      "name": "over_bid_count",
      "outputs": [
        {
          "internalType": "uint256",
          "name": "amount",
          "type": "uint256"
        }
      ],
      "payable": false,
      "stateMutability": "view",
      "type": "function"
    }
  ],
  "bytecode": "0x6080604052600060045534801561001557600080fd5b506040516108373803806108378339818101604052604081101561003857600080fd5b81516020830180516040519294929383019291908464010000000082111561005f57600080fd5b90830190602082018581111561007457600080fd5b825164010000000081118282018810171561008e57600080fd5b82525081516020918201929091019080838360005b838110156100bb5781810151838201526020016100a3565b50505050905090810190601f1680156100e85780820380516001836020036101000a031916815260200191505b50604052505050600182905560028054610100600160a81b0319163361010002179055805161011e906000906020840190610143565b505042600355506002805460ff191660019081179091556006805490910190556101de565b828054600181600116156101000203166002900490600052602060002090601f016020900481019282601f1061018457805160ff19168380011785556101b1565b828001600101855582156101b1579182015b828111156101b1578251825591602001919060010190610196565b506101bd9291506101c1565b5090565b6101db91905b808211156101bd57600081556001016101c7565b90565b61064a806101ed6000396000f3fe608060405234801561001057600080fd5b50600436106100ea5760003560e01c806361dcd7ab1161008c57806386c1c45a1161006657806386c1c45a14610256578063a54638441461025e578063b0aa2a7614610266578063dadd26191461026e576100ea565b806361dcd7ab1461022057806362ea82db14610228578063709b00101461024e576100ea565b80631ba2b5ef116100c85780631ba2b5ef146101e45780631ff11f54146101ec5780635507ab73146101f4578063557ed1ba14610218576100ea565b8063056e5e81146100ef5780630a42d91f1461012f57806313b9b598146101ac575b600080fd5b61011b6004803603604081101561010557600080fd5b50803590602001356001600160a01b0316610276565b604080519115158252519081900360200190f35b610137610336565b6040805160208082528351818301528351919283929083019185019080838360005b83811015610171578181015183820152602001610159565b50505050905090810190601f16801561019e5780820380516001836020036101000a031916815260200191505b509250505060405180910390f35b6101d2600480360360208110156101c257600080fd5b50356001600160a01b03166103c4565b60408051918252519081900360200190f35b6101d2610449565b61011b61044f565b6101fc610458565b604080516001600160a01b039092168252519081900360200190f35b6101d261046c565b6101d2610472565b6101fc6004803603602081101561023e57600080fd5b50356001600160a01b0316610478565b6101fc610493565b6101d26104b0565b6101d26104b6565b6101d26104bc565b6101d26104c2565b6000808383604051610287906104c8565b9182526001600160a01b03166020820152604080519182900301906000f0801580156102b7573d6000803e3d6000fd5b506001600160a01b03848116600090815260056020526040902080546001600160a01b03191691831691909117905560015490915084111561032257600184815560028054610100600160a81b0319166101006001600160a01b038716021790556004805490910190555b505060068054600190810190915592915050565b6000805460408051602060026001851615610100026000190190941693909304601f810184900484028201840190925281815292918301828280156103bc5780601f10610391576101008083540402835291602001916103bc565b820191906000526020600020905b81548152906001019060200180831161039f57829003601f168201915b505050505081565b6001600160a01b038082166000908152600560209081526040808320548151632aa3085f60e21b8152915193941692839263aa8c217c9260048082019391829003018186803b15801561041657600080fd5b505afa15801561042a573d6000803e3d6000fd5b505050506040513d602081101561044057600080fd5b50519392505050565b60015481565b60025460ff1681565b60025461010090046001600160a01b031681565b60035490565b60035481565b6005602052600090815260409020546001600160a01b031681565b6002805460ff19169081905561010090046001600160a01b031690565b60045490565b60045481565b60065481565b60015490565b610140806104d68339019056fe608060405234801561001057600080fd5b506040516101403803806101408339818101604052604081101561003357600080fd5b5080516020909101516000918255600180546001600160a01b0319166001600160a01b0390921691909117905560d190819061006f90396000f3fe6080604052348015600f57600080fd5b5060043610603c5760003560e01c806380a1bbda146041578063aa8c217c146059578063f496d88214605f575b600080fd5b60476081565b60408051918252519081900360200190f35b60476087565b6065608d565b604080516001600160a01b039092168252519081900360200190f35b60005490565b60005481565b6001546001600160a01b03168156fea265627a7a72315820d995fc8e0392c771d2e59556f72b0969af3395a1041d3eac1a2c229fb1bcd1ad64736f6c63430005100032a265627a7a72315820c4c5058ff48184a5f49e0f413b390654458fa003a434e6a4ef8f42f37358a5ff64736f6c63430005100032",
  "source": "pragma solidity >0.4.2;\r\n\r\nimport './Bid.sol';\r\n\r\ncontract Bid_Event {\r\n\r\n    string public domain_name;\r\n    uint public cur_highest_price;\r\n    bool public ongoing;\r\n    address public cur_highest_address;\r\n    uint public createTime;\r\n    uint public overbid_count = 0;\r\n\r\n    mapping(address => Bid) public bids;  // Address = 0x001d3f1ef827552ae1114027bd3ecf1f086ba0f9   address owner = 0xc0ffee254729296a45a3885639AC7E10F9d54979\r\n    \r\n    uint public bit_count;\r\n\r\n    constructor(uint _cur_highest_price, string memory _domain_name) public {\r\n        cur_highest_price = _cur_highest_price;\r\n        cur_highest_address = msg.sender;\r\n        domain_name = _domain_name; \r\n        createTime = block.timestamp;\r\n        ongoing = true;\r\n        bit_count += 1;\r\n    }\r\n\r\n    function addBid(uint _price, address _bidder) public returns(bool added) {\r\n        Bid bid = new Bid(_price, _bidder);\r\n        bids[_bidder] = bid;\r\n        // add price it to sender balanace\r\n        // update the currentPrice\r\n        if (cur_highest_price < _price){\r\n            cur_highest_price = _price;\r\n            cur_highest_address = _bidder;\r\n            overbid_count += 1;\r\n        }\r\n        bit_count += 1;\r\n        return true;\r\n    }\r\n\r\n    function getBidAmount(address _sender) public view returns(uint amount) {\r\n     Bid bid = bids[_sender];\r\n     return bid.amount();\r\n    }\r\n    \r\n    function endBidGetWinner() public returns( address highest_address){\r\n        ongoing = false;\r\n        return cur_highest_address; \r\n    }\r\n\r\n    function getWinnerPrice() public view returns (uint amount){\r\n        return cur_highest_price;\r\n    }\r\n\r\n    function getTime() public view returns (uint amount){\r\n        return createTime;\r\n    }\r\n    function over_bid_count() public view returns (uint amount){\r\n        return overbid_count;\r\n    }\r\n}",
  "sourcePath": "D:\\GitHub\\4153Dapp\\contracts\\Bid_Event.sol",
  "compiler": {
    "name": "solc",
    "version": "0.5.16+commit.9c3226ce.Emscripten.clang"
  },
  "schemaVersion": "3.3.1",
  "updatedAt": "2020-11-02T15:07:55.535Z",
  "devdoc": {
    "methods": {}
  },
  "userdoc": {
    "methods": {}
  }
}