{
  "contractName": "DNS",
  "abi": [
    {
      "inputs": [],
      "payable": false,
      "stateMutability": "nonpayable",
      "type": "constructor"
    },
    {
      "constant": true,
      "inputs": [
        {
          "internalType": "uint256",
          "name": "",
          "type": "uint256"
        }
      ],
      "name": "bid_events",
      "outputs": [
        {
          "internalType": "uint256",
          "name": "domain_id",
          "type": "uint256"
        },
        {
          "internalType": "uint256",
          "name": "cur_highest_price",
          "type": "uint256"
        },
        {
          "internalType": "bool",
          "name": "ongoing",
          "type": "bool"
        },
        {
          "internalType": "string",
          "name": "cur_higehst_address",
          "type": "string"
        }
      ],
      "payable": false,
      "stateMutability": "view",
      "type": "function"
    },
    {
      "constant": true,
      "inputs": [],
      "name": "domain_count",
      "outputs": [
        {
          "internalType": "uint256",
          "name": "",
          "type": "uint256"
        }
      ],
      "payable": false,
      "stateMutability": "view",
      "type": "function"
    },
    {
      "constant": true,
      "inputs": [
        {
          "internalType": "uint256",
          "name": "",
          "type": "uint256"
        }
      ],
      "name": "domains",
      "outputs": [
        {
          "internalType": "uint256",
          "name": "id",
          "type": "uint256"
        },
        {
          "internalType": "string",
          "name": "domain_name",
          "type": "string"
        },
        {
          "internalType": "bool",
          "name": "registered",
          "type": "bool"
        },
        {
          "internalType": "string",
          "name": "owner_address",
          "type": "string"
        }
      ],
      "payable": false,
      "stateMutability": "view",
      "type": "function"
    },
    {
      "constant": true,
      "inputs": [],
      "name": "event_count",
      "outputs": [
        {
          "internalType": "uint256",
          "name": "",
          "type": "uint256"
        }
      ],
      "payable": false,
      "stateMutability": "view",
      "type": "function"
    },
    {
      "constant": false,
      "inputs": [
        {
          "internalType": "uint256",
          "name": "_domainid",
          "type": "uint256"
        }
      ],
      "name": "Start_Bid",
      "outputs": [],
      "payable": false,
      "stateMutability": "nonpayable",
      "type": "function"
    },
    {
      "constant": false,
      "inputs": [
        {
          "internalType": "uint256",
          "name": "_index",
          "type": "uint256"
        }
      ],
      "name": "End_Bid",
      "outputs": [],
      "payable": false,
      "stateMutability": "nonpayable",
      "type": "function"
    }
  ],
  "bytecode": "0x60806040526000600155600060035534801561001a57600080fd5b506040518060800160405280600081526020016040518060400160405280600681526020017f796c2e6e7475000000000000000000000000000000000000000000000000000081525081526020016000151581526020016040518060400160405280600181526020017f30000000000000000000000000000000000000000000000000000000000000008152508152506000808081526020019081526020016000206000820151816000015560208201518160010190805190602001906100e292919061030e565b5060408201518160020160006101000a81548160ff021916908315150217905550606082015181600301908051906020019061011f92919061030e565b509050506040518060800160405280600181526020016040518060400160405280600681526020017f63742e6e7475000000000000000000000000000000000000000000000000000081525081526020016000151581526020016040518060400160405280600181526020017f3000000000000000000000000000000000000000000000000000000000000000815250815250600080600181526020019081526020016000206000820151816000015560208201518160010190805190602001906101eb92919061030e565b5060408201518160020160006101000a81548160ff021916908315150217905550606082015181600301908051906020019061022892919061030e565b50905050600260018190555060405180608001604052806001815260200160c881526020016000151581526020016040518060400160405280600a81526020017f796c5f6164647265737300000000000000000000000000000000000000000000815250815250600260006003548152602001908152602001600020600082015181600001556020820151816001015560408201518160020160006101000a81548160ff02191690831515021790555060608201518160030190805190602001906102f492919061030e565b5090505060016003600082825401925050819055506103b3565b828054600181600116156101000203166002900490600052602060002090601f016020900481019282601f1061034f57805160ff191683800117855561037d565b8280016001018555821561037d579182015b8281111561037c578251825591602001919060010190610361565b5b50905061038a919061038e565b5090565b6103b091905b808211156103ac576000816000905550600101610394565b5090565b90565b6107fd806103c26000396000f3fe608060405234801561001057600080fd5b50600436106100625760003560e01c8063296973dc146100675780632bea05591461008557806343723534146100a357806366cf8fab146101635780637d56de99146102885780637f9550d2146102b6575b600080fd5b61006f6102e4565b6040518082815260200191505060405180910390f35b61008d6102ea565b6040518082815260200191505060405180910390f35b6100cf600480360360208110156100b957600080fd5b81019080803590602001909291905050506102f0565b604051808581526020018481526020018315151515815260200180602001828103825283818151815260200191508051906020019080838360005b8381101561012557808201518184015260208101905061010a565b50505050905090810190601f1680156101525780820380516001836020036101000a031916815260200191505b509550505050505060405180910390f35b61018f6004803603602081101561017957600080fd5b81019080803590602001909291905050506103c5565b60405180858152602001806020018415151515815260200180602001838103835286818151815260200191508051906020019080838360005b838110156101e35780820151818401526020810190506101c8565b50505050905090810190601f1680156102105780820380516001836020036101000a031916815260200191505b50838103825284818151815260200191508051906020019080838360005b8381101561024957808201518184015260208101905061022e565b50505050905090810190601f1680156102765780820380516001836020036101000a031916815260200191505b50965050505050505060405180910390f35b6102b46004803603602081101561029e57600080fd5b8101908080359060200190929190505050610532565b005b6102e2600480360360208110156102cc57600080fd5b8101908080359060200190929190505050610609565b005b60015481565b60035481565b60026020528060005260406000206000915090508060000154908060010154908060020160009054906101000a900460ff1690806003018054600181600116156101000203166002900480601f0160208091040260200160405190810160405280929190818152602001828054600181600116156101000203166002900480156103bb5780601f10610390576101008083540402835291602001916103bb565b820191906000526020600020905b81548152906001019060200180831161039e57829003601f168201915b5050505050905084565b6000602052806000526040600020600091509050806000015490806001018054600181600116156101000203166002900480601f0160208091040260200160405190810160405280929190818152602001828054600181600116156101000203166002900480156104775780601f1061044c57610100808354040283529160200191610477565b820191906000526020600020905b81548152906001019060200180831161045a57829003601f168201915b5050505050908060020160009054906101000a900460ff1690806003018054600181600116156101000203166002900480601f0160208091040260200160405190810160405280929190818152602001828054600181600116156101000203166002900480156105285780601f106104fd57610100808354040283529160200191610528565b820191906000526020600020905b81548152906001019060200180831161050b57829003601f168201915b5050505050905084565b6040518060800160405280828152602001600081526020016001151581526020016040518060400160405280600381526020017f3939390000000000000000000000000000000000000000000000000000000000815250815250600260006003548152602001908152602001600020600082015181600001556020820151816001015560408201518160020160006101000a81548160ff02191690831515021790555060608201518160030190805190602001906105f192919061069c565b50905050600160036000828254019250508190555050565b60006002600083815260200190815260200160002060020160006101000a81548160ff0219169083151502179055506002600082815260200190815260200160002060030160008060026000858152602001908152602001600020600001548152602001908152602001600020600301908054600181600116156101000203166002900461069892919061071c565b5050565b828054600181600116156101000203166002900490600052602060002090601f016020900481019282601f106106dd57805160ff191683800117855561070b565b8280016001018555821561070b579182015b8281111561070a5782518255916020019190600101906106ef565b5b50905061071891906107a3565b5090565b828054600181600116156101000203166002900490600052602060002090601f016020900481019282601f106107555780548555610792565b8280016001018555821561079257600052602060002091601f016020900482015b82811115610791578254825591600101919060010190610776565b5b50905061079f91906107a3565b5090565b6107c591905b808211156107c15760008160009055506001016107a9565b5090565b9056fea265627a7a723158208e9b86f9e5f677947565ace923fa681bce858a0be7d762ff28fd319ee9915eca64736f6c63430005100032",
  "source": "pragma solidity >0.4.2;\r\n\r\nimport './Domain.sol';\r\n\r\ncontract DNS {\r\n\r\n    // store candidate, read candidiat, constructor\r\n\r\n    // string public candidate;\r\n    // uint public votes;\r\n    struct Domain {\r\n        uint  id;\r\n        string  domain_name;\r\n        bool  registered;\r\n        string  owner_address; // address type\r\n        }\r\n\r\n    struct Bid_Event{\r\n        uint domain_id;\r\n        uint cur_highest_price;\r\n        bool ongoing;\r\n        string  cur_higehst_address;  // address type\r\n        // address[] bids;\r\n    }\r\n\r\n    mapping(uint => Domain) public domains;\r\n    uint public domain_count = 0;\r\n\r\n    mapping(uint => Bid_Event) public bid_events;\r\n    uint public event_count = 0;\r\n\r\n    constructor () public {\r\n        domains[0] = Domain(0, \"yl.ntu\", false, \"0\");\r\n        domains[1] = Domain(1, \"ct.ntu\", false, \"0\");\r\n        domain_count = 2;\r\n        bid_events[event_count] = Bid_Event( 1, 200, false, \"yl_address\" );\r\n        event_count += 1;\r\n    }\r\n\r\n    function Start_Bid (uint _domainid) public{\r\n        bid_events[event_count] = Bid_Event( _domainid, 0, true, \"999\" );\r\n        event_count += 1;\r\n    }\r\n\r\n    // function Search_Bid_Event(string _domain_name) public{\r\n    // }\r\n\r\n    function End_Bid (uint _index) public{\r\n        bid_events[_index].ongoing = false;\r\n        domains[bid_events[_index].domain_id].owner_address = bid_events[_index].cur_higehst_address;\r\n        // transcation ??\r\n    }\r\n\r\n\r\n\r\n    // struct Buyer{\r\n    //     uint ip;\r\n    //     uint price;\r\n    //     string name;\r\n    // }\r\n\r\n\r\n\r\n\r\n}",
  "sourcePath": "D:/GitHub/YL trial/contracts/DNS.sol",
  "compiler": {
    "name": "solc",
    "version": "0.5.16+commit.9c3226ce.Emscripten.clang"
  },
  "schemaVersion": "3.3.1",
  "updatedAt": "2020-10-29T14:49:39.480Z",
  "networkType": "ethereum",
  "devdoc": {
    "methods": {}
  },
  "userdoc": {
    "methods": {}
  }
}