{
  "contractName": "DNS",
  "abi": [
    {
      "inputs": [],
      "payable": false,
      "stateMutability": "nonpayable",
      "type": "constructor"
    },
    {
      "anonymous": false,
      "inputs": [
        {
          "indexed": false,
          "internalType": "string",
          "name": "domainName",
          "type": "string"
        },
        {
          "indexed": false,
          "internalType": "address",
          "name": "owner",
          "type": "address"
        }
      ],
      "name": "DomainRegistered",
      "type": "event"
    },
    {
      "anonymous": false,
      "inputs": [
        {
          "indexed": false,
          "internalType": "string",
          "name": "domainName",
          "type": "string"
        },
        {
          "indexed": false,
          "internalType": "address",
          "name": "owner",
          "type": "address"
        }
      ],
      "name": "DomainUnregistered",
      "type": "event"
    },
    {
      "constant": true,
      "inputs": [
        {
          "internalType": "string",
          "name": "",
          "type": "string"
        }
      ],
      "name": "bid_events",
      "outputs": [
        {
          "internalType": "contract Bid_Event",
          "name": "",
          "type": "address"
        }
      ],
      "payable": false,
      "stateMutability": "view",
      "type": "function"
    },
    {
      "constant": true,
      "inputs": [],
      "name": "domain_count",
      "outputs": [
        {
          "internalType": "uint256",
          "name": "",
          "type": "uint256"
        }
      ],
      "payable": false,
      "stateMutability": "view",
      "type": "function"
    },
    {
      "constant": true,
      "inputs": [],
      "name": "event_count",
      "outputs": [
        {
          "internalType": "uint256",
          "name": "",
          "type": "uint256"
        }
      ],
      "payable": false,
      "stateMutability": "view",
      "type": "function"
    },
    {
      "constant": false,
      "inputs": [
        {
          "internalType": "uint256",
          "name": "_price",
          "type": "uint256"
        },
        {
          "internalType": "string",
          "name": "_domain_name",
          "type": "string"
        }
      ],
      "name": "Start_Bid",
      "outputs": [],
      "payable": false,
      "stateMutability": "nonpayable",
      "type": "function"
    },
    {
      "constant": false,
      "inputs": [
        {
          "internalType": "uint256",
          "name": "_amount",
          "type": "uint256"
        },
        {
          "internalType": "string",
          "name": "_domain_name",
          "type": "string"
        }
      ],
      "name": "Insert_Bid",
      "outputs": [],
      "payable": false,
      "stateMutability": "nonpayable",
      "type": "function"
    },
    {
      "constant": false,
      "inputs": [
        {
          "internalType": "string",
          "name": "_domain_name",
          "type": "string"
        }
      ],
      "name": "End_Bid",
      "outputs": [],
      "payable": false,
      "stateMutability": "nonpayable",
      "type": "function"
    },
    {
      "constant": true,
      "inputs": [
        {
          "internalType": "string",
          "name": "_domain_name",
          "type": "string"
        }
      ],
      "name": "Debug_get_overbid",
      "outputs": [
        {
          "internalType": "uint256",
          "name": "count",
          "type": "uint256"
        }
      ],
      "payable": false,
      "stateMutability": "view",
      "type": "function"
    },
    {
      "constant": true,
      "inputs": [
        {
          "internalType": "string",
          "name": "_domain_name",
          "type": "string"
        }
      ],
      "name": "Debug_get_winnerprice",
      "outputs": [
        {
          "internalType": "uint256",
          "name": "price",
          "type": "uint256"
        }
      ],
      "payable": false,
      "stateMutability": "view",
      "type": "function"
    },
    {
      "constant": true,
      "inputs": [],
      "name": "getTotalEtherHeldInContract",
      "outputs": [
        {
          "internalType": "uint256",
          "name": "",
          "type": "uint256"
        }
      ],
      "payable": false,
      "stateMutability": "view",
      "type": "function"
    },
    {
      "constant": true,
      "inputs": [
        {
          "internalType": "string",
          "name": "_name",
          "type": "string"
        }
      ],
      "name": "Search_by_Name",
      "outputs": [
        {
          "internalType": "address",
          "name": "_add",
          "type": "address"
        },
        {
          "internalType": "bool",
          "name": "_registered",
          "type": "bool"
        },
        {
          "internalType": "uint256",
          "name": "_idx",
          "type": "uint256"
        }
      ],
      "payable": false,
      "stateMutability": "view",
      "type": "function"
    },
    {
      "constant": true,
      "inputs": [
        {
          "internalType": "uint256",
          "name": "_index",
          "type": "uint256"
        }
      ],
      "name": "Search_Registered",
      "outputs": [
        {
          "internalType": "address",
          "name": "",
          "type": "address"
        }
      ],
      "payable": false,
      "stateMutability": "view",
      "type": "function"
    },
    {
      "constant": true,
      "inputs": [
        {
          "internalType": "string",
          "name": "_domain_name",
          "type": "string"
        }
      ],
      "name": "Search_bid_Time",
      "outputs": [
        {
          "internalType": "uint256",
          "name": "startTime",
          "type": "uint256"
        }
      ],
      "payable": false,
      "stateMutability": "view",
      "type": "function"
    },
    {
      "constant": true,
      "inputs": [
        {
          "internalType": "uint256",
          "name": "_index",
          "type": "uint256"
        }
      ],
      "name": "checkIndexExists",
      "outputs": [
        {
          "internalType": "bool",
          "name": "_exists",
          "type": "bool"
        }
      ],
      "payable": false,
      "stateMutability": "view",
      "type": "function"
    },
    {
      "constant": true,
      "inputs": [
        {
          "internalType": "string",
          "name": "_name",
          "type": "string"
        }
      ],
      "name": "checkNameExists",
      "outputs": [
        {
          "internalType": "bool",
          "name": "_exists",
          "type": "bool"
        }
      ],
      "payable": false,
      "stateMutability": "view",
      "type": "function"
    },
    {
      "constant": true,
      "inputs": [
        {
          "internalType": "uint256",
          "name": "_index",
          "type": "uint256"
        }
      ],
      "name": "getDomain",
      "outputs": [
        {
          "internalType": "string",
          "name": "domainName",
          "type": "string"
        },
        {
          "internalType": "address",
          "name": "owner",
          "type": "address"
        },
        {
          "internalType": "bool",
          "name": "reg",
          "type": "bool"
        },
        {
          "internalType": "uint256",
          "name": "price",
          "type": "uint256"
        }
      ],
      "payable": false,
      "stateMutability": "view",
      "type": "function"
    },
    {
      "constant": true,
      "inputs": [],
      "name": "getDomainsLength",
      "outputs": [
        {
          "internalType": "uint256",
          "name": "count",
          "type": "uint256"
        }
      ],
      "payable": false,
      "stateMutability": "view",
      "type": "function"
    },
    {
      "constant": false,
      "inputs": [
        {
          "internalType": "string",
          "name": "_domainName",
          "type": "string"
        },
        {
          "internalType": "uint256",
          "name": "_domainIndex",
          "type": "uint256"
        }
      ],
      "name": "unregisterDomain",
      "outputs": [],
      "payable": false,
      "stateMutability": "nonpayable",
      "type": "function"
    }
  ],
  "bytecode": "0x60806040526000805560006003553480156200001a57600080fd5b50604080518082019091526006815265796c2e6e747560d01b602082015273c0ffee254729296a45a3885639ac7e10f9d549799062000065908260586001600160e01b036200006d16565b5050620002a8565b60006001600160a01b03831662000082573392505b60408051608081018252858152600160208083018290526001600160a01b0387169383019390935260608201859052805480820180835560009290925282518051929460039092027fb10e2d527612073b26eecdfd717e6a320cf44b4afac2b0732d9fcbe2b7fa0cf60192620000fc928492019062000203565b506020828101516001838101805460408088015160ff1990921694151594909417610100600160a81b0319166101006001600160a01b03928316021790915560609586015160029095019490945560008054909101815581519389168484015281845289519184019190915288517f70f2ff07e8136617cdfb0433423063c9dd697c507560d7860cce09fa86874a1295508994899493849391840192908701918190849084905b83811015620001bd578181015183820152602001620001a3565b50505050905090810190601f168015620001eb5780820380516001836020036101000a031916815260200191505b50935050505060405180910390a15060019392505050565b828054600181600116156101000203166002900490600052602060002090601f016020900481019282601f106200024657805160ff191683800117855562000276565b8280016001018555821562000276579182015b828111156200027657825182559160200191906001019062000259565b506200028492915062000288565b5090565b620002a591905b808211156200028457600081556001016200028f565b90565b6121e280620002b86000396000f3fe60806040523480156200001157600080fd5b5060043610620001245760003560e01c806346b10d9411620000b15780636b8eb179116200007b5780636b8eb17914620007485780636c07d84c1462000768578063a193cbb11462000772578063e72c72c81462000823578063f8c0a85814620008cd5762000124565b806346b10d9414620004df5780634b963cf314620005b15780635a540e02146200066257806360e13ab314620007285762000124565b80632ae09c6811620000f35780632ae09c6814620003635780632bea0559146200042157806332c28b4d146200042b5780633f02968914620004d55762000124565b80631243d5c11462000129578063133bad0114620001d75780631a7a98e21462000293578063296973dc1462000359575b600080fd5b620001d5600480360360408110156200014157600080fd5b810190602081018135600160201b8111156200015c57600080fd5b8201836020820111156200016f57600080fd5b803590602001918460018302840111600160201b831117156200019157600080fd5b91908080601f016020809104026020016040519081016040528093929190818152602001838380828437600092019190915250929550509135925062000977915050565b005b6200028160048036036020811015620001ef57600080fd5b810190602081018135600160201b8111156200020a57600080fd5b8201836020820111156200021d57600080fd5b803590602001918460018302840111600160201b831117156200023f57600080fd5b91908080601f01602080910402602001604051908101604052809392919081815260200183838082843760009201919091525092955062000c5b945050505050565b60408051918252519081900360200190f35b620002b360048036036020811015620002ab57600080fd5b503562000d35565b6040518080602001856001600160a01b03166001600160a01b0316815260200184151515158152602001838152602001828103825286818151815260200191508051906020019080838360005b838110156200031a57818101518382015260200162000300565b50505050905090810190601f168015620003485780820380516001836020036101000a031916815260200191505b509550505050505060405180910390f35b6200028162000e71565b6200040d600480360360208110156200037b57600080fd5b810190602081018135600160201b8111156200039657600080fd5b820183602082011115620003a957600080fd5b803590602001918460018302840111600160201b83111715620003cb57600080fd5b91908080601f01602080910402602001604051908101604052809392919081815260200183838082843760009201919091525092955062000e77945050505050565b604080519115158252519081900360200190f35b6200028162000e8c565b620001d5600480360360208110156200044357600080fd5b810190602081018135600160201b8111156200045e57600080fd5b8201836020820111156200047157600080fd5b803590602001918460018302840111600160201b831117156200049357600080fd5b91908080601f01602080910402602001604051908101604052809392919081815260200183838082843760009201919091525092955062000e92945050505050565b6200028162001051565b6200058960048036036020811015620004f757600080fd5b810190602081018135600160201b8111156200051257600080fd5b8201836020820111156200052557600080fd5b803590602001918460018302840111600160201b831117156200054757600080fd5b91908080601f01602080910402602001604051908101604052809392919081815260200183838082843760009201919091525092955062001056945050505050565b604080516001600160a01b039094168452911515602084015282820152519081900360600190f35b620001d560048036036040811015620005c957600080fd5b81359190810190604081016020820135600160201b811115620005eb57600080fd5b820183602082011115620005fe57600080fd5b803590602001918460018302840111600160201b831117156200062057600080fd5b91908080601f016020809104026020016040519081016040528093929190818152602001838380828437600092019190915250929550620011b0945050505050565b6200070c600480360360208110156200067a57600080fd5b810190602081018135600160201b8111156200069557600080fd5b820183602082011115620006a857600080fd5b803590602001918460018302840111600160201b83111715620006ca57600080fd5b91908080601f0160208091040260200160405190810160405280939291908181526020018383808284376000920191909152509295506200128e945050505050565b604080516001600160a01b039092168252519081900360200190f35b6200070c600480360360208110156200074057600080fd5b5035620012b4565b6200040d600480360360208110156200076057600080fd5b50356200130c565b6200028162001339565b620001d5600480360360408110156200078a57600080fd5b81359190810190604081016020820135600160201b811115620007ac57600080fd5b820183602082011115620007bf57600080fd5b803590602001918460018302840111600160201b83111715620007e157600080fd5b91908080601f0160208091040260200160405190810160405280939291908181526020018383808284376000920191909152509295506200133f945050505050565b62000281600480360360208110156200083b57600080fd5b810190602081018135600160201b8111156200085657600080fd5b8201836020820111156200086957600080fd5b803590602001918460018302840111600160201b831117156200088b57600080fd5b91908080601f01602080910402602001604051908101604052809392919081815260200183838082843760009201919091525092955062001474945050505050565b6200028160048036036020811015620008e557600080fd5b810190602081018135600160201b8111156200090057600080fd5b8201836020820111156200091357600080fd5b803590602001918460018302840111600160201b831117156200093557600080fd5b91908080601f01602080910402602001604051908101604052809392919081815260200183838082843760009201919091525092955062001517945050505050565b6000620009848362001056565b50915050600181151514620009e0576040805162461bcd60e51b815260206004820152601860248201527f646f6d61696e206973206e6f7420726567697374657265640000000000000000604482015290519081900360640190fd5b336001600160a01b031660018381548110620009f857fe5b600091825260209091206003909102016001015461010090046001600160a01b03161462000a63576040805162461bcd60e51b81526020600482015260136024820152723737ba1037bbb732b91037b3103237b6b0b4b760691b604482015290519081900360640190fd5b60006001838154811062000a7357fe5b906000526020600020906003020160010160006101000a81548160ff021916908315150217905550600180600054038154811062000aad57fe5b90600052602060002090600302016001838154811062000ac957fe5b90600052602060002090600302016000820181600001908054600181600116156101000203166002900462000b0092919062001801565b5060018281018054838301805460ff909216151560ff199092169190911780825591546001600160a01b03610100918290041602610100600160a81b0319909216919091179055600292830154929091019190915560005481546000199190910190811062000b6b57fe5b6000918252602082206003909102019062000b8782826200188d565b506001810180546001600160a81b03191690556000600290910181905580546000190181556040805133602080830182905283835287519383019390935286517f9e5d8d0d10c6cdcb755413d52682132b83c300e69df3c6ef4c8af1f3d9e2486394889492939283926060840192918701918190849084905b8381101562000c1a57818101518382015260200162000c00565b50505050905090810190601f16801562000c485780820380516001836020036101000a031916815260200191505b50935050505060405180910390a1505050565b6000806002836040518082805190602001908083835b6020831062000c925780518252601f19909201916020918201910162000c71565b51815160209384036101000a60001901801990921691161790529201948552506040805194859003820185205463dadd261960e01b865290516001600160a01b039091169550859463dadd261994506004808201945090829003018186803b15801562000cfe57600080fd5b505afa15801562000d13573d6000803e3d6000fd5b505050506040513d602081101562000d2a57600080fd5b50519150505b919050565b606060008060006001858154811062000d4a57fe5b6000918252602091829020600390910201805460408051601f600260001961010060018716150201909416939093049283018590048502810185019091528181529283018282801562000de15780601f1062000db55761010080835404028352916020019162000de1565b820191906000526020600020905b81548152906001019060200180831162000dc357829003601f168201915b505050505093506001858154811062000df657fe5b906000526020600020906003020160010160019054906101000a90046001600160a01b031692506001858154811062000e2b57fe5b600091825260209091206001600390920201810154815460ff90911693508690811062000e5457fe5b600091825260209091206002600390920201015490509193509193565b60005481565b600062000e848262001056565b509392505050565b60035481565b60006002826040518082805190602001908083835b6020831062000ec85780518252601f19909201916020918201910162000ea7565b51815160209384036101000a600019018019909216911617905292019485525060408051948590038201852054630709b00160e41b865290516001600160a01b039091169463709b0010945060048082019450908290030181600087803b15801562000f3357600080fd5b505af115801562000f48573d6000803e3d6000fd5b505050506040513d602081101562000f5f57600080fd5b505160405183519192506000916002918591819060208401908083835b6020831062000f9d5780518252601f19909201916020918201910162000f7c565b51815160209384036101000a60001901801990921691161790529201948552506040805194859003820185205463dadd261960e01b865290516001600160a01b03909116955060009486945063dadd261993506004808201939291829003018186803b1580156200100d57600080fd5b505afa15801562001022573d6000803e3d6000fd5b505050506040513d60208110156200103957600080fd5b505190506200104a8484836200166b565b5050505050565b475b90565b60008080805b6000548110156200119d576060600182815481106200107757fe5b6000918252602091829020600390910201805460408051601f60026000196101006001871615020190941693909304928301859004850281018501909152818152928301828280156200110e5780601f10620010e2576101008083540402835291602001916200110e565b820191906000526020600020905b815481529060010190602001808311620010f057829003601f168201915b505050505090508580519060200120818051906020012014156200119357600182815481106200113a57fe5b906000526020600020906003020160010160019054906101000a90046001600160a01b03169450600182815481106200116f57fe5b600091825260209091206001600390920201015460ff169350909150620011a99050565b506001016200105c565b50600092508291508190505b9193909250565b6002816040518082805190602001908083835b60208310620011e45780518252601f199092019160209182019101620011c3565b51815160209384036101000a60001901801990921691161790529201948552506040805194859003820185205463056e5e8160e01b86526004860188905233602487015290516001600160a01b039091169463056e5e81945060448082019450908290030181600087803b1580156200125c57600080fd5b505af115801562001271573d6000803e3d6000fd5b505050506040513d60208110156200128857600080fd5b50505050565b80516020818301810180516002825292820191909301209152546001600160a01b031681565b6000620012c1826200130c565b156200130357600060018381548110620012d757fe5b600091825260209091206003909102016001015461010090046001600160a01b0316915062000d309050565b50600062000d30565b6000600182815481106200131c57fe5b600091825260209091206003909102016001015460ff1692915050565b60005490565b600082826040516200135190620018d8565b828152604060208083018281528451928401929092528351606084019185019080838360005b838110156200139157818101518382015260200162001377565b50505050905090810190601f168015620013bf5780820380516001836020036101000a031916815260200191505b509350505050604051809103906000f080158015620013e2573d6000803e3d6000fd5b509050806002836040518082805190602001908083835b602083106200141a5780518252601f199092019160209182019101620013f9565b51815160209384036101000a6000190180199092169116179052920194855250604051938490030190922080546001600160a01b0319166001600160a01b0394909416939093179092555050600380546001019055505050565b6000806002836040518082805190602001908083835b60208310620014ab5780518252601f1990920191602091820191016200148a565b51815160209384036101000a600019018019909216911617905292019485525060408051948590038201852054634360e22d60e11b865290516001600160a01b03909116955085946386c1c45a94506004808201945090829003018186803b15801562000cfe57600080fd5b6000806002836040518082805190602001908083835b602083106200154e5780518252601f1990920191602091820191016200152d565b51815160209384036101000a6000190180199092169116179052920194855250604080519485900382018520546307fc47d560e21b865290516001600160a01b0390911695508594631ff11f5494506004808201945090829003018186803b158015620015ba57600080fd5b505afa158015620015cf573d6000803e3d6000fd5b505050506040513d6020811015620015e657600080fd5b5051156200166057806001600160a01b031663557ed1ba6040518163ffffffff1660e01b815260040160206040518083038186803b1580156200162857600080fd5b505afa1580156200163d573d6000803e3d6000fd5b505050506040513d60208110156200165457600080fd5b5051915062000d309050565b600091505062000d30565b60006001600160a01b03831662001680573392505b60408051608081018252858152600160208083018290526001600160a01b0387169383019390935260608201859052805480820180835560009290925282518051929460039092027fb10e2d527612073b26eecdfd717e6a320cf44b4afac2b0732d9fcbe2b7fa0cf60192620016fa9284920190620018e6565b506020828101516001838101805460408088015160ff1990921694151594909417610100600160a81b0319166101006001600160a01b03928316021790915560609586015160029095019490945560008054909101815581519389168484015281845289519184019190915288517f70f2ff07e8136617cdfb0433423063c9dd697c507560d7860cce09fa86874a1295508994899493849391840192908701918190849084905b83811015620017bb578181015183820152602001620017a1565b50505050905090810190601f168015620017e95780820380516001836020036101000a031916815260200191505b50935050505060405180910390a15060019392505050565b828054600181600116156101000203166002900490600052602060002090601f016020900481019282601f106200183c57805485556200187b565b828001600101855582156200187b57600052602060002091601f016020900482015b828111156200187b5782548255916001019190600101906200185e565b506200188992915062001959565b5090565b50805460018160011615610100020316600290046000825580601f10620018b55750620018d5565b601f016020900490600052602060002090810190620018d5919062001959565b50565b610837806200197783390190565b828054600181600116156101000203166002900490600052602060002090601f016020900481019282601f106200192957805160ff19168380011785556200187b565b828001600101855582156200187b579182015b828111156200187b5782518255916020019190600101906200193c565b6200105391905b808211156200188957600081556001016200196056fe6080604052600060045534801561001557600080fd5b506040516108373803806108378339818101604052604081101561003857600080fd5b81516020830180516040519294929383019291908464010000000082111561005f57600080fd5b90830190602082018581111561007457600080fd5b825164010000000081118282018810171561008e57600080fd5b82525081516020918201929091019080838360005b838110156100bb5781810151838201526020016100a3565b50505050905090810190601f1680156100e85780820380516001836020036101000a031916815260200191505b50604052505050600182905560028054610100600160a81b0319163361010002179055805161011e906000906020840190610143565b505042600355506002805460ff191660019081179091556006805490910190556101de565b828054600181600116156101000203166002900490600052602060002090601f016020900481019282601f1061018457805160ff19168380011785556101b1565b828001600101855582156101b1579182015b828111156101b1578251825591602001919060010190610196565b506101bd9291506101c1565b5090565b6101db91905b808211156101bd57600081556001016101c7565b90565b61064a806101ed6000396000f3fe608060405234801561001057600080fd5b50600436106100ea5760003560e01c806361dcd7ab1161008c57806386c1c45a1161006657806386c1c45a14610256578063a54638441461025e578063b0aa2a7614610266578063dadd26191461026e576100ea565b806361dcd7ab1461022057806362ea82db14610228578063709b00101461024e576100ea565b80631ba2b5ef116100c85780631ba2b5ef146101e45780631ff11f54146101ec5780635507ab73146101f4578063557ed1ba14610218576100ea565b8063056e5e81146100ef5780630a42d91f1461012f57806313b9b598146101ac575b600080fd5b61011b6004803603604081101561010557600080fd5b50803590602001356001600160a01b0316610276565b604080519115158252519081900360200190f35b610137610336565b6040805160208082528351818301528351919283929083019185019080838360005b83811015610171578181015183820152602001610159565b50505050905090810190601f16801561019e5780820380516001836020036101000a031916815260200191505b509250505060405180910390f35b6101d2600480360360208110156101c257600080fd5b50356001600160a01b03166103c4565b60408051918252519081900360200190f35b6101d2610449565b61011b61044f565b6101fc610458565b604080516001600160a01b039092168252519081900360200190f35b6101d261046c565b6101d2610472565b6101fc6004803603602081101561023e57600080fd5b50356001600160a01b0316610478565b6101fc610493565b6101d26104b0565b6101d26104b6565b6101d26104bc565b6101d26104c2565b6000808383604051610287906104c8565b9182526001600160a01b03166020820152604080519182900301906000f0801580156102b7573d6000803e3d6000fd5b506001600160a01b03848116600090815260056020526040902080546001600160a01b03191691831691909117905560015490915084111561032257600184815560028054610100600160a81b0319166101006001600160a01b038716021790556004805490910190555b505060068054600190810190915592915050565b6000805460408051602060026001851615610100026000190190941693909304601f810184900484028201840190925281815292918301828280156103bc5780601f10610391576101008083540402835291602001916103bc565b820191906000526020600020905b81548152906001019060200180831161039f57829003601f168201915b505050505081565b6001600160a01b038082166000908152600560209081526040808320548151632aa3085f60e21b8152915193941692839263aa8c217c9260048082019391829003018186803b15801561041657600080fd5b505afa15801561042a573d6000803e3d6000fd5b505050506040513d602081101561044057600080fd5b50519392505050565b60015481565b60025460ff1681565b60025461010090046001600160a01b031681565b60035490565b60035481565b6005602052600090815260409020546001600160a01b031681565b6002805460ff19169081905561010090046001600160a01b031690565b60045490565b60045481565b60065481565b60015490565b610140806104d68339019056fe608060405234801561001057600080fd5b506040516101403803806101408339818101604052604081101561003357600080fd5b5080516020909101516000918255600180546001600160a01b0319166001600160a01b0390921691909117905560d190819061006f90396000f3fe6080604052348015600f57600080fd5b5060043610603c5760003560e01c806380a1bbda146041578063aa8c217c146059578063f496d88214605f575b600080fd5b60476081565b60408051918252519081900360200190f35b60476087565b6065608d565b604080516001600160a01b039092168252519081900360200190f35b60005490565b60005481565b6001546001600160a01b03168156fea265627a7a72315820d995fc8e0392c771d2e59556f72b0969af3395a1041d3eac1a2c229fb1bcd1ad64736f6c63430005100032a265627a7a72315820c4c5058ff48184a5f49e0f413b390654458fa003a434e6a4ef8f42f37358a5ff64736f6c63430005100032a265627a7a723158201947ace8df2aada9a3339dd24dec6642779f9fe4a21f96b357ee484d0e5c6b2c64736f6c63430005100032",
  "source": "pragma solidity >0.4.2;\r\n\r\nimport './Bid_Event.sol';\r\n\r\ncontract DNS {\r\n\r\n    struct Domain {\r\n        string  domain_name;\r\n        bool  registered;\r\n        address owner_address;\r\n        uint price; // address type\r\n        }\r\n\r\n    event DomainRegistered(\r\n    string domainName,\r\n    address owner\r\n  );\r\n\r\n    event DomainUnregistered(\r\n    string domainName,\r\n    address owner\r\n  );\r\n\r\n    // mapping(string => Domain) public domains;\r\n    uint public domain_count = 0;\r\n\r\n    Domain[] domains;\r\n\r\n    mapping(string => Bid_Event) public bid_events;\r\n    uint public event_count = 0;\r\n\r\n    constructor() public {\r\n        address yuling = 0xc0ffee254729296a45a3885639AC7E10F9d54979;\r\n        createNewDNSEntry( \"yl.ntu\" , yuling, 88); // Address = 0x001d3f1ef827552ae1114027bd3ecf1f086ba0f9   address owner = 0xc0ffee254729296a45a3885639AC7E10F9d54979\r\n        // Bid[] memory bids;\r\n        // bid_events[event_count] = Bid_Event( 1, 200, false, \"yl_address\" , 0 , new Bid[](0));\r\n    }\r\n\r\n    //  every Name has a Bid map containig all bids for the map\r\n    //  mapping (bytes32 => BidContainer) bidContainerMap;\r\n\r\n \r\n\r\n        function createNewDNSEntry( string memory _name, address _winner, uint _price) private returns (bool _created)\r\n        {\r\n        // domains[_name].domain_name = _name;\r\n        // domains[_name].owner_address = _winner;\r\n        // domains[_name].registered = true;\r\n        // domains[_name].price = _price;\r\n        if (_winner == address(0)){\r\n            _winner = msg.sender;\r\n        }\r\n\r\n        domains.push(Domain(_name, true,_winner, _price));\r\n        domain_count += 1;\r\n        emit DomainRegistered(_name, _winner);\r\n        return true;\r\n        \r\n    }\r\n\r\n    function Start_Bid (uint _price, string memory _domain_name) public {\r\n        Bid_Event _event = new Bid_Event( _price, _domain_name);\r\n        bid_events[_domain_name] = _event;\r\n        event_count += 1;\r\n    }\r\n\r\n    // function Search_Bid_Event(string _domain_name) public{\r\n        // return index\r\n    // }\r\n\r\n    function Insert_Bid(uint _amount, string memory _domain_name) public{  // later change to address the _bidder\r\n        bid_events[_domain_name].addBid(_amount, msg.sender);\r\n    }\r\n\r\n    function End_Bid ( string memory _domain_name) public{\r\n        address winner = bid_events[_domain_name].endBidGetWinner();\r\n        Bid_Event _event = bid_events[_domain_name];\r\n        uint price = _event.getWinnerPrice();\r\n        createNewDNSEntry( _domain_name, winner, price);\r\n    }\r\n\r\n    function Debug_get_overbid ( string memory _domain_name) public view returns(uint count){\r\n        Bid_Event _event = bid_events[_domain_name];\r\n        count = _event.over_bid_count();\r\n        return count;\r\n    }\r\n    function Debug_get_winnerprice ( string memory _domain_name) public view returns(uint price){\r\n        Bid_Event _event = bid_events[_domain_name];\r\n        price = _event.getWinnerPrice();\r\n        return price;\r\n    }\r\n\r\n\r\n     function getTotalEtherHeldInContract() public view returns (uint) {\r\n         return address(this).balance;\r\n     }\r\n\r\n    function Search_by_Name ( string memory _name) public view returns (address _add, bool _registered, uint _idx){\r\n        for (uint i = 0; i< domain_count; i++){\r\n            string memory cur_name = domains[i].domain_name;\r\n            if (keccak256(bytes(cur_name)) == keccak256(bytes(_name))){\r\n                _add = domains[i].owner_address;\r\n                _registered = domains[i].registered;\r\n                _idx = i;\r\n                return ( _add,  _registered , _idx) ;\r\n            }\r\n        }\r\n        return ( address(0), false, 0); // when not found\r\n    }\r\n\r\n    function Search_Registered ( uint  _index) public view returns (address){\r\n        if(checkIndexExists(_index))\r\n        {address owner = domains[_index].owner_address ;\r\n        return owner;}\r\n        else\r\n        {return address(0);}\r\n    }\r\n\r\n    function Search_bid_Time ( string memory _domain_name) public view returns (uint startTime){\r\n        Bid_Event _event = bid_events[_domain_name];\r\n        if(_event.ongoing())\r\n        { startTime = _event.getTime() ;\r\n        return startTime;}\r\n        else\r\n        {return uint(0);}\r\n    }\r\n\r\n    // struct Buyer{\r\n    //     uint ip;\r\n    //     uint price;\r\n    //     string name;\r\n    // }\r\n    \r\n    function checkIndexExists(uint _index) public view returns(bool _exists){\r\n        return domains[_index].registered;\r\n    }\r\n\r\n    function checkNameExists(string memory _name) public view returns(bool _exists){\r\n         ( , _exists, ) = Search_by_Name(_name);\r\n        return _exists; \r\n    }\r\n\r\n    //returns the registered domain information in the array registeredDomains at the index _index\r\n    function getDomain(uint _index) public view\r\n    returns(string memory domainName, address owner, bool reg,  uint price){\r\n        domainName = domains[_index].domain_name;\r\n        owner = domains[_index].owner_address;\r\n        reg = domains[_index].registered;\r\n        price = domains[_index].price;\r\n        return (domainName, owner, reg, price);\r\n    }\r\n\r\n    //returns the number of registered domains\r\n    function getDomainsLength() public view returns(uint count) {\r\n        return domain_count;\r\n    }\r\n\r\n    // function registerDomain(string memory _domainName) public  --->>> function createNewDNSEntry( string memory _name, address _winner, uint _price) \r\n\r\n    function unregisterDomain(string memory _domainName , uint _domainIndex) public {\r\n        ( , bool _exists, ) = Search_by_Name(_domainName);\r\n        require(_exists == true,\"domain is not registered\");\r\n        require(domains[_domainIndex].owner_address == msg.sender,\"not owner of domain\");\r\n        // uint idx = Search_by_Name(_domainName)[2];\r\n        domains[_domainIndex].registered = false;\r\n        domains[_domainIndex] = domains[domain_count-1];\r\n        delete domains[domain_count-1];\r\n        domain_count --;\r\n        emit DomainUnregistered(_domainName, msg.sender);\r\n    }\r\n\r\n}",
  "sourcePath": "D:/GitHub/4153Dapp/contracts/DNS.sol",
  "compiler": {
    "name": "solc",
    "version": "0.5.16+commit.9c3226ce.Emscripten.clang"
  },
  "schemaVersion": "3.3.1",
  "updatedAt": "2020-11-02T14:58:01.425Z",
  "networkType": "ethereum",
  "devdoc": {
    "methods": {}
  },
  "userdoc": {
    "methods": {}
  }
}