{
  "contractName": "DNS",
  "abi": [
    {
      "inputs": [],
      "payable": false,
      "stateMutability": "nonpayable",
      "type": "constructor"
    },
    {
      "anonymous": false,
      "inputs": [
        {
          "indexed": false,
          "internalType": "string",
          "name": "domainName",
          "type": "string"
        },
        {
          "indexed": false,
          "internalType": "address",
          "name": "owner",
          "type": "address"
        }
      ],
      "name": "DomainRegistered",
      "type": "event"
    },
    {
      "anonymous": false,
      "inputs": [
        {
          "indexed": false,
          "internalType": "string",
          "name": "domainName",
          "type": "string"
        },
        {
          "indexed": false,
          "internalType": "address",
          "name": "owner",
          "type": "address"
        }
      ],
      "name": "DomainUnregistered",
      "type": "event"
    },
    {
      "constant": true,
      "inputs": [
        {
          "internalType": "string",
          "name": "",
          "type": "string"
        }
      ],
      "name": "bid_events",
      "outputs": [
        {
          "internalType": "contract Bid_Event",
          "name": "",
          "type": "address"
        }
      ],
      "payable": false,
      "stateMutability": "view",
      "type": "function"
    },
    {
      "constant": true,
      "inputs": [],
      "name": "domain_count",
      "outputs": [
        {
          "internalType": "uint256",
          "name": "",
          "type": "uint256"
        }
      ],
      "payable": false,
      "stateMutability": "view",
      "type": "function"
    },
    {
      "constant": true,
      "inputs": [],
      "name": "event_count",
      "outputs": [
        {
          "internalType": "uint256",
          "name": "",
          "type": "uint256"
        }
      ],
      "payable": false,
      "stateMutability": "view",
      "type": "function"
    },
    {
      "constant": false,
      "inputs": [
        {
          "internalType": "uint256",
          "name": "_price",
          "type": "uint256"
        },
        {
          "internalType": "string",
          "name": "_domain_name",
          "type": "string"
        }
      ],
      "name": "Start_Bid",
      "outputs": [],
      "payable": false,
      "stateMutability": "nonpayable",
      "type": "function"
    },
    {
      "constant": false,
      "inputs": [
        {
          "internalType": "uint256",
          "name": "_amount",
          "type": "uint256"
        },
        {
          "internalType": "string",
          "name": "_domain_name",
          "type": "string"
        }
      ],
      "name": "Insert_Bid",
      "outputs": [],
      "payable": false,
      "stateMutability": "nonpayable",
      "type": "function"
    },
    {
      "constant": false,
      "inputs": [
        {
          "internalType": "string",
          "name": "_domain_name",
          "type": "string"
        }
      ],
      "name": "End_Bid",
      "outputs": [],
      "payable": false,
      "stateMutability": "nonpayable",
      "type": "function"
    },
    {
      "constant": true,
      "inputs": [],
      "name": "getTotalEtherHeldInContract",
      "outputs": [
        {
          "internalType": "uint256",
          "name": "",
          "type": "uint256"
        }
      ],
      "payable": false,
      "stateMutability": "view",
      "type": "function"
    },
    {
      "constant": true,
      "inputs": [
        {
          "internalType": "string",
          "name": "_name",
          "type": "string"
        }
      ],
      "name": "Search_by_Name",
      "outputs": [
        {
          "internalType": "address",
          "name": "_add",
          "type": "address"
        },
        {
          "internalType": "bool",
          "name": "_registered",
          "type": "bool"
        },
        {
          "internalType": "uint256",
          "name": "_idx",
          "type": "uint256"
        }
      ],
      "payable": false,
      "stateMutability": "view",
      "type": "function"
    },
    {
      "constant": true,
      "inputs": [
        {
          "internalType": "uint256",
          "name": "_index",
          "type": "uint256"
        }
      ],
      "name": "Search_Registered",
      "outputs": [
        {
          "internalType": "address",
          "name": "",
          "type": "address"
        }
      ],
      "payable": false,
      "stateMutability": "view",
      "type": "function"
    },
    {
      "constant": true,
      "inputs": [
        {
          "internalType": "string",
          "name": "_domain_name",
          "type": "string"
        }
      ],
      "name": "Search_bid_Time",
      "outputs": [
        {
          "internalType": "uint256",
          "name": "startTime",
          "type": "uint256"
        }
      ],
      "payable": false,
      "stateMutability": "view",
      "type": "function"
    },
    {
      "constant": true,
      "inputs": [
        {
          "internalType": "uint256",
          "name": "_index",
          "type": "uint256"
        }
      ],
      "name": "checkIndexExists",
      "outputs": [
        {
          "internalType": "bool",
          "name": "_exists",
          "type": "bool"
        }
      ],
      "payable": false,
      "stateMutability": "view",
      "type": "function"
    },
    {
      "constant": true,
      "inputs": [
        {
          "internalType": "string",
          "name": "_name",
          "type": "string"
        }
      ],
      "name": "checkNameExists",
      "outputs": [
        {
          "internalType": "bool",
          "name": "_exists",
          "type": "bool"
        }
      ],
      "payable": false,
      "stateMutability": "view",
      "type": "function"
    },
    {
      "constant": true,
      "inputs": [
        {
          "internalType": "uint256",
          "name": "_index",
          "type": "uint256"
        }
      ],
      "name": "getDomain",
      "outputs": [
        {
          "internalType": "string",
          "name": "domainName",
          "type": "string"
        },
        {
          "internalType": "address",
          "name": "owner",
          "type": "address"
        }
      ],
      "payable": false,
      "stateMutability": "view",
      "type": "function"
    },
    {
      "constant": true,
      "inputs": [],
      "name": "getDomainsLength",
      "outputs": [
        {
          "internalType": "uint256",
          "name": "count",
          "type": "uint256"
        }
      ],
      "payable": false,
      "stateMutability": "view",
      "type": "function"
    },
    {
      "constant": false,
      "inputs": [
        {
          "internalType": "string",
          "name": "_domainName",
          "type": "string"
        },
        {
          "internalType": "uint256",
          "name": "_domainIndex",
          "type": "uint256"
        }
      ],
      "name": "unregisterDomain",
      "outputs": [],
      "payable": false,
      "stateMutability": "nonpayable",
      "type": "function"
    }
  ],
  "bytecode": "0x60806040526000805560006003553480156200001a57600080fd5b50600073c0ffee254729296a45a3885639ac7e10f9d5497990506200007d6040518060400160405280600681526020017f796c2e6e747500000000000000000000000000000000000000000000000000008152508260586200008560201b60201c565b5050620002e4565b60008073ffffffffffffffffffffffffffffffffffffffff168373ffffffffffffffffffffffffffffffffffffffff161415620000c0573392505b600160405180608001604052808681526020016001151581526020018573ffffffffffffffffffffffffffffffffffffffff168152602001848152509080600181540180825580915050906001820390600052602060002090600302016000909192909190915060008201518160000190805190602001906200014592919062000235565b5060208201518160010160006101000a81548160ff02191690831515021790555060408201518160010160016101000a81548173ffffffffffffffffffffffffffffffffffffffff021916908373ffffffffffffffffffffffffffffffffffffffff1602179055506060820151816002015550505060016000808282540192505081905550600190506200022e565b83811015620001f1578082015181840152602081019050620001d4565b50505050905090810190601f1680156200021f5780820380516001836020036101000a031916815260200191505b50935050505060405180910390a15b9392505050565b828054600181600116156101000203166002900490600052602060002090601f016020900481019282601f106200027857805160ff1916838001178555620002a9565b82800160010185558215620002a9579182015b82811115620002a85782518255916020019190600101906200028b565b5b509050620002b89190620002bc565b5090565b620002e191905b80821115620002dd576000816000905550600101620002c3565b5090565b90565b61287680620002f46000396000f3fe60806040523480156200001157600080fd5b50600436106200010c5760003560e01c806346b10d9411620000a55780636b8eb179116200006f5780636b8eb17914620008065780636c07d84c146200084f578063a193cbb1146200086f578063f8c0a858146200093a576200010c565b806346b10d9414620004b65780634b963cf314620005c95780635a540e02146200069457806360e13ab31462000795576200010c565b80632ae09c6811620000e75780632ae09c6814620002dc5780632bea055914620003b557806332c28b4d14620003d55780633f0296891462000496576200010c565b80631243d5c114620001115780631a7a98e214620001dc578063296973dc14620002bc575b600080fd5b620001da600480360360408110156200012957600080fd5b81019080803590602001906401000000008111156200014757600080fd5b8201836020820111156200015a57600080fd5b803590602001918460018302840111640100000000831117156200017d57600080fd5b91908080601f016020809104026020016040519081016040528093929190818152602001838380828437600081840152601f19601f8201169050808301925050505050505091929192908035906020019092919050505062000a0f565b005b6200020b60048036036020811015620001f457600080fd5b810190808035906020019092919050505062000e1d565b60405180806020018373ffffffffffffffffffffffffffffffffffffffff1673ffffffffffffffffffffffffffffffffffffffff168152602001828103825284818151815260200191508051906020019080838360005b838110156200027f57808201518184015260208101905062000262565b50505050905090810190601f168015620002ad5780820380516001836020036101000a031916815260200191505b50935050505060405180910390f35b620002c662000f26565b6040518082815260200191505060405180910390f35b6200039b60048036036020811015620002f457600080fd5b81019080803590602001906401000000008111156200031257600080fd5b8201836020820111156200032557600080fd5b803590602001918460018302840111640100000000831117156200034857600080fd5b91908080601f016020809104026020016040519081016040528093929190818152602001838380828437600081840152601f19601f82011690508083019250505050505050919291929050505062000f2c565b604051808215151515815260200191505060405180910390f35b620003bf62000f49565b6040518082815260200191505060405180910390f35b6200049460048036036020811015620003ed57600080fd5b81019080803590602001906401000000008111156200040b57600080fd5b8201836020820111156200041e57600080fd5b803590602001918460018302840111640100000000831117156200044157600080fd5b91908080601f016020809104026020016040519081016040528093929190818152602001838380828437600081840152601f19601f82011690508083019250505050505050919291929050505062000f4f565b005b620004a06200118a565b6040518082815260200191505060405180910390f35b6200057560048036036020811015620004ce57600080fd5b8101908080359060200190640100000000811115620004ec57600080fd5b820183602082011115620004ff57600080fd5b803590602001918460018302840111640100000000831117156200052257600080fd5b91908080601f016020809104026020016040519081016040528093929190818152602001838380828437600081840152601f19601f82011690508083019250505050505050919291929050505062001192565b604051808473ffffffffffffffffffffffffffffffffffffffff1673ffffffffffffffffffffffffffffffffffffffff16815260200183151515158152602001828152602001935050505060405180910390f35b6200069260048036036040811015620005e157600080fd5b8101908080359060200190929190803590602001906401000000008111156200060957600080fd5b8201836020820111156200061c57600080fd5b803590602001918460018302840111640100000000831117156200063f57600080fd5b91908080601f016020809104026020016040519081016040528093929190818152602001838380828437600081840152601f19601f8201169050808301925050505050505091929192905050506200132d565b005b6200075360048036036020811015620006ac57600080fd5b8101908080359060200190640100000000811115620006ca57600080fd5b820183602082011115620006dd57600080fd5b803590602001918460018302840111640100000000831117156200070057600080fd5b91908080601f016020809104026020016040519081016040528093929190818152602001838380828437600081840152601f19601f82011690508083019250505050505050919291929050505062001482565b604051808273ffffffffffffffffffffffffffffffffffffffff1673ffffffffffffffffffffffffffffffffffffffff16815260200191505060405180910390f35b620007c460048036036020811015620007ad57600080fd5b8101908080359060200190929190505050620014cb565b604051808273ffffffffffffffffffffffffffffffffffffffff1673ffffffffffffffffffffffffffffffffffffffff16815260200191505060405180910390f35b62000835600480360360208110156200081e57600080fd5b810190808035906020019092919050505062001536565b604051808215151515815260200191505060405180910390f35b620008596200156c565b6040518082815260200191505060405180910390f35b62000938600480360360408110156200088757600080fd5b810190808035906020019092919080359060200190640100000000811115620008af57600080fd5b820183602082011115620008c257600080fd5b80359060200191846001830284011164010000000083111715620008e557600080fd5b91908080601f016020809104026020016040519081016040528093929190818152602001838380828437600081840152601f19601f82011690508083019250505050505050919291929050505062001575565b005b620009f9600480360360208110156200095257600080fd5b81019080803590602001906401000000008111156200097057600080fd5b8201836020820111156200098357600080fd5b80359060200191846001830284011164010000000083111715620009a657600080fd5b91908080601f016020809104026020016040519081016040528093929190818152602001838380828437600081840152601f19601f820116905080830192505050505050509192919290505050620016e0565b6040518082815260200191505060405180910390f35b600062000a1c8362001192565b50915050600115158115151462000a9b576040517f08c379a00000000000000000000000000000000000000000000000000000000081526004018080602001828103825260188152602001807f646f6d61696e206973206e6f742072656769737465726564000000000000000081525060200191505060405180910390fd5b3373ffffffffffffffffffffffffffffffffffffffff166001838154811062000ac057fe5b906000526020600020906003020160010160019054906101000a900473ffffffffffffffffffffffffffffffffffffffff1673ffffffffffffffffffffffffffffffffffffffff161462000b7c576040517f08c379a00000000000000000000000000000000000000000000000000000000081526004018080602001828103825260138152602001807f6e6f74206f776e6572206f6620646f6d61696e0000000000000000000000000081525060200191505060405180910390fd5b60006001838154811062000b8c57fe5b906000526020600020906003020160010160006101000a81548160ff021916908315150217905550600180600054038154811062000bc657fe5b90600052602060002090600302016001838154811062000be257fe5b90600052602060002090600302016000820181600001908054600181600116156101000203166002900462000c1992919062001acb565b506001820160009054906101000a900460ff168160010160006101000a81548160ff0219169083151502179055506001820160019054906101000a900473ffffffffffffffffffffffffffffffffffffffff168160010160016101000a81548173ffffffffffffffffffffffffffffffffffffffff021916908373ffffffffffffffffffffffffffffffffffffffff16021790555060028201548160020155905050600180600054038154811062000ccd57fe5b90600052602060002090600302016000808201600062000cee919062001b59565b6001820160006101000a81549060ff02191690556001820160016101000a81549073ffffffffffffffffffffffffffffffffffffffff0219169055600282016000905550506000808154809291906001900391905055507f9e5d8d0d10c6cdcb755413d52682132b83c300e69df3c6ef4c8af1f3d9e24863833360405180806020018373ffffffffffffffffffffffffffffffffffffffff1673ffffffffffffffffffffffffffffffffffffffff168152602001828103825284818151815260200191508051906020019080838360005b8381101562000ddc57808201518184015260208101905062000dbf565b50505050905090810190601f16801562000e0a5780820380516001836020036101000a031916815260200191505b50935050505060405180910390a1505050565b606060006001838154811062000e2f57fe5b90600052602060002090600302016000018054600181600116156101000203166002900480601f01602080910402602001604051908101604052809291908181526020018280546001816001161561010002031660029004801562000ed85780601f1062000eac5761010080835404028352916020019162000ed8565b820191906000526020600020905b81548152906001019060200180831162000eba57829003601f168201915b505050505091506001838154811062000eed57fe5b906000526020600020906003020160010160019054906101000a900473ffffffffffffffffffffffffffffffffffffffff169050915091565b60005481565b600062000f398262001192565b9091505080915050809050919050565b60035481565b60006002826040518082805190602001908083835b6020831062000f89578051825260208201915060208101905060208303925062000f64565b6001836020036101000a038019825116818451168082178552505050505050905001915050908152602001604051809103902060009054906101000a900473ffffffffffffffffffffffffffffffffffffffff1673ffffffffffffffffffffffffffffffffffffffff1663709b00106040518163ffffffff1660e01b8152600401602060405180830381600087803b1580156200102557600080fd5b505af11580156200103a573d6000803e3d6000fd5b505050506040513d60208110156200105157600080fd5b8101908080519060200190929190505050905060006002836040518082805190602001908083835b602083106200109e578051825260208201915060208101905060208303925062001079565b6001836020036101000a038019825116818451168082178552505050505050905001915050908152602001604051809103902060009054906101000a900473ffffffffffffffffffffffffffffffffffffffff1673ffffffffffffffffffffffffffffffffffffffff1663dadd26196040518163ffffffff1660e01b815260040160206040518083038186803b1580156200113857600080fd5b505afa1580156200114d573d6000803e3d6000fd5b505050506040513d60208110156200116457600080fd5b81019080805190602001909291905050509050620011848383836200191b565b50505050565b600047905090565b600080600080600090505b6000548110156200131357606060018281548110620011b857fe5b90600052602060002090600302016000018054600181600116156101000203166002900480601f016020809104026020016040519081016040528092919081815260200182805460018160011615610100020316600290048015620012615780601f10620012355761010080835404028352916020019162001261565b820191906000526020600020905b8154815290600101906020018083116200124357829003601f168201915b505050505090508580519060200120818051906020012014156200130457600182815481106200128d57fe5b906000526020600020906003020160010160019054906101000a900473ffffffffffffffffffffffffffffffffffffffff16945060018281548110620012cf57fe5b906000526020600020906003020160010160009054906101000a900460ff169350819250848484945094509450505062001326565b5080806001019150506200119d565b5060008060008292508090509250925092505b9193909250565b6002816040518082805190602001908083835b6020831062001365578051825260208201915060208101905060208303925062001340565b6001836020036101000a038019825116818451168082178552505050505050905001915050908152602001604051809103902060009054906101000a900473ffffffffffffffffffffffffffffffffffffffff1673ffffffffffffffffffffffffffffffffffffffff1663056e5e8183336040518363ffffffff1660e01b8152600401808381526020018273ffffffffffffffffffffffffffffffffffffffff1673ffffffffffffffffffffffffffffffffffffffff16815260200192505050602060405180830381600087803b1580156200144057600080fd5b505af115801562001455573d6000803e3d6000fd5b505050506040513d60208110156200146c57600080fd5b8101908080519060200190929190505050505050565b6002818051602081018201805184825260208301602085012081835280955050505050506000915054906101000a900473ffffffffffffffffffffffffffffffffffffffff1681565b6000620014d88262001536565b156200152c57600060018381548110620014ee57fe5b906000526020600020906003020160010160019054906101000a900473ffffffffffffffffffffffffffffffffffffffff1690508091505062001531565b600090505b919050565b6000600182815481106200154657fe5b906000526020600020906003020160010160009054906101000a900460ff169050919050565b60008054905090565b60008282604051620015879062001ba5565b8083815260200180602001828103825283818151815260200191508051906020019080838360005b83811015620015cc578082015181840152602081019050620015af565b50505050905090810190601f168015620015fa5780820380516001836020036101000a031916815260200191505b509350505050604051809103906000f0801580156200161d573d6000803e3d6000fd5b509050806002836040518082805190602001908083835b6020831062001659578051825260208201915060208101905060208303925062001634565b6001836020036101000a038019825116818451168082178552505050505050905001915050908152602001604051809103902060006101000a81548173ffffffffffffffffffffffffffffffffffffffff021916908373ffffffffffffffffffffffffffffffffffffffff1602179055506001600360008282540192505081905550505050565b60006002826040518082805190602001908083835b602083106200171a5780518252602082019150602081019050602083039250620016f5565b6001836020036101000a038019825116818451168082178552505050505050905001915050908152602001604051809103902060009054906101000a900473ffffffffffffffffffffffffffffffffffffffff1673ffffffffffffffffffffffffffffffffffffffff16631ff11f546040518163ffffffff1660e01b815260040160206040518083038186803b158015620017b457600080fd5b505afa158015620017c9573d6000803e3d6000fd5b505050506040513d6020811015620017e057600080fd5b81019080805190602001909291905050501562001911576002826040518082805190602001908083835b602083106200182f57805182526020820191506020810190506020830392506200180a565b6001836020036101000a038019825116818451168082178552505050505050905001915050908152602001604051809103902060009054906101000a900473ffffffffffffffffffffffffffffffffffffffff1673ffffffffffffffffffffffffffffffffffffffff1663557ed1ba6040518163ffffffff1660e01b815260040160206040518083038186803b158015620018c957600080fd5b505afa158015620018de573d6000803e3d6000fd5b505050506040513d6020811015620018f557600080fd5b8101908080519060200190929190505050905080905062001916565b600090505b919050565b60008073ffffffffffffffffffffffffffffffffffffffff168373ffffffffffffffffffffffffffffffffffffffff16141562001956573392505b600160405180608001604052808681526020016001151581526020018573ffffffffffffffffffffffffffffffffffffffff16815260200184815250908060018154018082558091505090600182039060005260206000209060030201600090919290919091506000820151816000019080519060200190620019db92919062001bb3565b5060208201518160010160006101000a81548160ff02191690831515021790555060408201518160010160016101000a81548173ffffffffffffffffffffffffffffffffffffffff021916908373ffffffffffffffffffffffffffffffffffffffff16021790555060608201518160020155505050600160008082825401925050819055506001905062001ac4565b8381101562001a8757808201518184015260208101905062001a6a565b50505050905090810190601f16801562001ab55780820380516001836020036101000a031916815260200191505b50935050505060405180910390a15b9392505050565b828054600181600116156101000203166002900490600052602060002090601f016020900481019282601f1062001b06578054855562001b46565b8280016001018555821562001b4657600052602060002091601f016020900482015b8281111562001b4557825482559160010191906001019062001b28565b5b50905062001b55919062001c3a565b5090565b50805460018160011615610100020316600290046000825580601f1062001b81575062001ba2565b601f01602090049060005260206000209081019062001ba1919062001c3a565b5b50565b610bdf8062001c6383390190565b828054600181600116156101000203166002900490600052602060002090601f016020900481019282601f1062001bf657805160ff191683800117855562001c27565b8280016001018555821562001c27579182015b8281111562001c2657825182559160200191906001019062001c09565b5b50905062001c36919062001c3a565b5090565b62001c5f91905b8082111562001c5b57600081600090555060010162001c41565b5090565b9056fe608060405234801561001057600080fd5b50604051610bdf380380610bdf8339818101604052604081101561003357600080fd5b81019080805190602001909291908051604051939291908464010000000082111561005d57600080fd5b8382019150602082018581111561007357600080fd5b825186600182028301116401000000008211171561009057600080fd5b8083526020830192505050908051906020019080838360005b838110156100c45780820151818401526020810190506100a9565b50505050905090810190601f1680156100f15780820380516001836020036101000a031916815260200191505b506040525050508160018190555033600260016101000a81548173ffffffffffffffffffffffffffffffffffffffff021916908373ffffffffffffffffffffffffffffffffffffffff1602179055508060009080519060200190610156929190610191565b50426003819055506001600260006101000a81548160ff02191690831515021790555060016005600082825401925050819055505050610236565b828054600181600116156101000203166002900490600052602060002090601f016020900481019282601f106101d257805160ff1916838001178555610200565b82800160010185558215610200579182015b828111156101ff5782518255916020019190600101906101e4565b5b50905061020d9190610211565b5090565b61023391905b8082111561022f576000816000905550600101610217565b5090565b90565b61099a806102456000396000f3fe608060405234801561001057600080fd5b50600436106100b45760003560e01c8063557ed1ba11610071578063557ed1ba1461028457806361dcd7ab146102a257806362ea82db146102c0578063709b001014610344578063b0aa2a761461038e578063dadd2619146103ac576100b4565b8063056e5e81146100b95780630a42d91f1461011f57806313b9b598146101a25780631ba2b5ef146101fa5780631ff11f54146102185780635507ab731461023a575b600080fd5b610105600480360360408110156100cf57600080fd5b8101908080359060200190929190803573ffffffffffffffffffffffffffffffffffffffff1690602001909291905050506103ca565b604051808215151515815260200191505060405180910390f35b610127610524565b6040518080602001828103825283818151815260200191508051906020019080838360005b8381101561016757808201518184015260208101905061014c565b50505050905090810190601f1680156101945780820380516001836020036101000a031916815260200191505b509250505060405180910390f35b6101e4600480360360208110156101b857600080fd5b81019080803573ffffffffffffffffffffffffffffffffffffffff1690602001909291905050506105c2565b6040518082815260200191505060405180910390f35b6102026106b0565b6040518082815260200191505060405180910390f35b6102206106b6565b604051808215151515815260200191505060405180910390f35b6102426106c9565b604051808273ffffffffffffffffffffffffffffffffffffffff1673ffffffffffffffffffffffffffffffffffffffff16815260200191505060405180910390f35b61028c6106ef565b6040518082815260200191505060405180910390f35b6102aa6106f9565b6040518082815260200191505060405180910390f35b610302600480360360208110156102d657600080fd5b81019080803573ffffffffffffffffffffffffffffffffffffffff1690602001909291905050506106ff565b604051808273ffffffffffffffffffffffffffffffffffffffff1673ffffffffffffffffffffffffffffffffffffffff16815260200191505060405180910390f35b61034c610732565b604051808273ffffffffffffffffffffffffffffffffffffffff1673ffffffffffffffffffffffffffffffffffffffff16815260200191505060405180910390f35b610396610776565b6040518082815260200191505060405180910390f35b6103b461077c565b6040518082815260200191505060405180910390f35b60008083836040516103db90610786565b808381526020018273ffffffffffffffffffffffffffffffffffffffff1673ffffffffffffffffffffffffffffffffffffffff16815260200192505050604051809103906000f080158015610434573d6000803e3d6000fd5b50905080600460008573ffffffffffffffffffffffffffffffffffffffff1673ffffffffffffffffffffffffffffffffffffffff16815260200190815260200160002060006101000a81548173ffffffffffffffffffffffffffffffffffffffff021916908373ffffffffffffffffffffffffffffffffffffffff160217905550836001541015610508578360018190555082600260016101000a81548173ffffffffffffffffffffffffffffffffffffffff021916908373ffffffffffffffffffffffffffffffffffffffff1602179055505b6001600560008282540192505081905550600191505092915050565b60008054600181600116156101000203166002900480601f0160208091040260200160405190810160405280929190818152602001828054600181600116156101000203166002900480156105ba5780601f1061058f576101008083540402835291602001916105ba565b820191906000526020600020905b81548152906001019060200180831161059d57829003601f168201915b505050505081565b600080600460008473ffffffffffffffffffffffffffffffffffffffff1673ffffffffffffffffffffffffffffffffffffffff16815260200190815260200160002060009054906101000a900473ffffffffffffffffffffffffffffffffffffffff1690508073ffffffffffffffffffffffffffffffffffffffff1663aa8c217c6040518163ffffffff1660e01b815260040160206040518083038186803b15801561066d57600080fd5b505afa158015610681573d6000803e3d6000fd5b505050506040513d602081101561069757600080fd5b8101908080519060200190929190505050915050919050565b60015481565b600260009054906101000a900460ff1681565b600260019054906101000a900473ffffffffffffffffffffffffffffffffffffffff1681565b6000600354905090565b60035481565b60046020528060005260406000206000915054906101000a900473ffffffffffffffffffffffffffffffffffffffff1681565b600080600260006101000a81548160ff021916908315150217905550600260019054906101000a900473ffffffffffffffffffffffffffffffffffffffff16905090565b60055481565b6000600154905090565b6101d2806107948339019056fe608060405234801561001057600080fd5b506040516101d23803806101d28339818101604052604081101561003357600080fd5b8101908080519060200190929190805190602001909291905050508160008190555080600160006101000a81548173ffffffffffffffffffffffffffffffffffffffff021916908373ffffffffffffffffffffffffffffffffffffffff160217905550505061012b806100a76000396000f3fe6080604052348015600f57600080fd5b5060043610603c5760003560e01c806380a1bbda146041578063aa8c217c14605d578063f496d882146079575b600080fd5b604760c1565b6040518082815260200191505060405180910390f35b606360ca565b6040518082815260200191505060405180910390f35b607f60d0565b604051808273ffffffffffffffffffffffffffffffffffffffff1673ffffffffffffffffffffffffffffffffffffffff16815260200191505060405180910390f35b60008054905090565b60005481565b600160009054906101000a900473ffffffffffffffffffffffffffffffffffffffff168156fea265627a7a723158208a64c07a1b0780ec2709b13542e4ac1e75c20ff08f19e8a2899c5f24d5013eaf64736f6c63430005100032a265627a7a723158209d4566dd10c56c124aecbbba3998262d2110d9d3105bd57fb051b184811abe9a64736f6c63430005100032a265627a7a7231582094da0350bb9d63124728dc5eb9b55d7b0124a8f04eeba09c708fdfb28855428064736f6c63430005100032",
  "source": "pragma solidity >0.4.2;\r\n\r\nimport './Bid_Event.sol';\r\n\r\ncontract DNS {\r\n\r\n    struct Domain {\r\n        string  domain_name;\r\n        bool  registered;\r\n        address owner_address;\r\n        uint price; // address type\r\n        }\r\n\r\n    event DomainRegistered(\r\n    string domainName,\r\n    address owner\r\n  );\r\n\r\n    event DomainUnregistered(\r\n    string domainName,\r\n    address owner\r\n  );\r\n\r\n    // mapping(string => Domain) public domains;\r\n    uint public domain_count = 0;\r\n\r\n    Domain[] domains;\r\n\r\n    mapping(string => Bid_Event) public bid_events;\r\n    uint public event_count = 0;\r\n\r\n    constructor() public {\r\n        address yuling = 0xc0ffee254729296a45a3885639AC7E10F9d54979;\r\n        createNewDNSEntry( \"yl.ntu\" , yuling, 88); // Address = 0x001d3f1ef827552ae1114027bd3ecf1f086ba0f9   address owner = 0xc0ffee254729296a45a3885639AC7E10F9d54979\r\n        // Bid[] memory bids;\r\n        // bid_events[event_count] = Bid_Event( 1, 200, false, \"yl_address\" , 0 , new Bid[](0));\r\n    }\r\n\r\n    //  every Name has a Bid map containig all bids for the map\r\n    //  mapping (bytes32 => BidContainer) bidContainerMap;\r\n\r\n \r\n\r\n        function createNewDNSEntry( string memory _name, address _winner, uint _price) private returns (bool _created)\r\n        {\r\n        // domains[_name].domain_name = _name;\r\n        // domains[_name].owner_address = _winner;\r\n        // domains[_name].registered = true;\r\n        // domains[_name].price = _price;\r\n        if (_winner == address(0)){\r\n            _winner = msg.sender;\r\n        }\r\n\r\n        domains.push(Domain(_name, true,_winner, _price));\r\n        domain_count += 1;\r\n        return true;\r\n        emit DomainRegistered(_name, _winner);\r\n    }\r\n\r\n    function Start_Bid (uint _price, string memory _domain_name) public {\r\n        Bid_Event _event = new Bid_Event( _price, _domain_name);\r\n        bid_events[_domain_name] = _event;\r\n        event_count += 1;\r\n    }\r\n\r\n    // function Search_Bid_Event(string _domain_name) public{\r\n        // return index\r\n    // }\r\n\r\n    function Insert_Bid(uint _amount, string memory _domain_name) public{  // later change to address the _bidder\r\n        bid_events[_domain_name].addBid(_amount, msg.sender);\r\n    }\r\n\r\n    function End_Bid ( string memory _domain_name) public{\r\n        address winner = bid_events[_domain_name].endBidGetWinner();\r\n        uint price = bid_events[_domain_name].getWinnerPrice(); // need ?\r\n        createNewDNSEntry( _domain_name, winner, price);\r\n    }\r\n\r\n     function getTotalEtherHeldInContract() public view returns (uint) {\r\n         return address(this).balance;\r\n     }\r\n\r\n    function Search_by_Name ( string memory _name) public view returns (address _add, bool _registered, uint _idx){\r\n        for (uint i = 0; i< domain_count; i++){\r\n            string memory cur_name = domains[i].domain_name;\r\n            if (keccak256(bytes(cur_name)) == keccak256(bytes(_name))){\r\n                _add = domains[i].owner_address;\r\n                _registered = domains[i].registered;\r\n                _idx = i;\r\n                return ( _add,  _registered , _idx) ;\r\n            }\r\n        }\r\n        return ( address(0), false, 0); // when not found\r\n    }\r\n\r\n    function Search_Registered ( uint  _index) public view returns (address){\r\n        if(checkIndexExists(_index))\r\n        {address owner = domains[_index].owner_address ;\r\n        return owner;}\r\n        else\r\n        {return address(0);}\r\n    }\r\n\r\n    function Search_bid_Time ( string memory _domain_name) public view returns (uint startTime){\r\n        if(bid_events[_domain_name].ongoing())\r\n        { startTime = bid_events[_domain_name].getTime() ;\r\n        return startTime;}\r\n        else\r\n        {return uint(0);}\r\n    }\r\n\r\n    // struct Buyer{\r\n    //     uint ip;\r\n    //     uint price;\r\n    //     string name;\r\n    // }\r\n    \r\n    function checkIndexExists(uint _index) public view returns(bool _exists){\r\n        return domains[_index].registered;\r\n    }\r\n\r\n    function checkNameExists(string memory _name) public view returns(bool _exists){\r\n         ( , _exists, ) = Search_by_Name(_name);\r\n        return _exists; \r\n    }\r\n\r\n    //returns the registered domain information in the array registeredDomains at the index _index\r\n    function getDomain(uint _index) public view\r\n    returns(string memory domainName,address owner){\r\n        domainName = domains[_index].domain_name;\r\n        owner = domains[_index].owner_address;\r\n    }\r\n\r\n    //returns the number of registered domains\r\n    function getDomainsLength() public view returns(uint count) {\r\n        return domain_count;\r\n    }\r\n\r\n    // function registerDomain(string memory _domainName) public  --->>> function createNewDNSEntry( string memory _name, address _winner, uint _price) \r\n\r\n    function unregisterDomain(string memory _domainName , uint _domainIndex) public {\r\n        ( , bool _exists, ) = Search_by_Name(_domainName);\r\n        require(_exists == true,\"domain is not registered\");\r\n        require(domains[_domainIndex].owner_address == msg.sender,\"not owner of domain\");\r\n        // uint idx = Search_by_Name(_domainName)[2];\r\n        domains[_domainIndex].registered = false;\r\n        domains[_domainIndex] = domains[domain_count-1];\r\n        delete domains[domain_count-1];\r\n        domain_count --;\r\n        emit DomainUnregistered(_domainName, msg.sender);\r\n    }\r\n\r\n}",
  "sourcePath": "D:/GitHub/4153Dapp/contracts/DNS.sol",
  "compiler": {
    "name": "solc",
    "version": "0.5.16+commit.9c3226ce.Emscripten.clang"
  },
  "schemaVersion": "3.3.1",
  "updatedAt": "2020-11-02T12:47:15.940Z",
  "networkType": "ethereum",
  "devdoc": {
    "methods": {}
  },
  "userdoc": {
    "methods": {}
  }
}