{
  "contractName": "Domain",
  "abi": [
    {
      "inputs": [
        {
          "internalType": "string",
          "name": "_domain_name",
          "type": "string"
        }
      ],
      "payable": false,
      "stateMutability": "nonpayable",
      "type": "constructor"
    },
    {
      "constant": true,
      "inputs": [],
      "name": "domain_name",
      "outputs": [
        {
          "internalType": "string",
          "name": "",
          "type": "string"
        }
      ],
      "payable": false,
      "stateMutability": "view",
      "type": "function"
    },
    {
      "constant": true,
      "inputs": [],
      "name": "id",
      "outputs": [
        {
          "internalType": "uint256",
          "name": "",
          "type": "uint256"
        }
      ],
      "payable": false,
      "stateMutability": "view",
      "type": "function"
    },
    {
      "constant": true,
      "inputs": [],
      "name": "owner_address",
      "outputs": [
        {
          "internalType": "string",
          "name": "",
          "type": "string"
        }
      ],
      "payable": false,
      "stateMutability": "view",
      "type": "function"
    },
    {
      "constant": true,
      "inputs": [],
      "name": "registered",
      "outputs": [
        {
          "internalType": "bool",
          "name": "",
          "type": "bool"
        }
      ],
      "payable": false,
      "stateMutability": "view",
      "type": "function"
    },
    {
      "constant": false,
      "inputs": [
        {
          "internalType": "string",
          "name": "_address",
          "type": "string"
        }
      ],
      "name": "Assign",
      "outputs": [],
      "payable": false,
      "stateMutability": "nonpayable",
      "type": "function"
    },
    {
      "constant": false,
      "inputs": [],
      "name": "Register",
      "outputs": [],
      "payable": false,
      "stateMutability": "nonpayable",
      "type": "function"
    },
    {
      "constant": true,
      "inputs": [],
      "name": "GetOwner",
      "outputs": [
        {
          "internalType": "string",
          "name": "",
          "type": "string"
        }
      ],
      "payable": false,
      "stateMutability": "view",
      "type": "function"
    }
  ],
  "bytecode": "0x608060405234801561001057600080fd5b506040516108183803806108188339818101604052602081101561003357600080fd5b810190808051604051939291908464010000000082111561005357600080fd5b8382019150602082018581111561006957600080fd5b825186600182028301116401000000008211171561008657600080fd5b8083526020830192505050908051906020019080838360005b838110156100ba57808201518184015260208101905061009f565b50505050905090810190601f1680156100e75780820380516001836020036101000a031916815260200191505b506040525050506000600260006101000a81548160ff021916908315150217905550604051806020016040528060008152506003908051906020019061012e92919061014c565b50806001908051906020019061014592919061014c565b50506101f1565b828054600181600116156101000203166002900490600052602060002090601f016020900481019282601f1061018d57805160ff19168380011785556101bb565b828001600101855582156101bb579182015b828111156101ba57825182559160200191906001019061019f565b5b5090506101c891906101cc565b5090565b6101ee91905b808211156101ea5760008160009055506001016101d2565b5090565b90565b610618806102006000396000f3fe608060405234801561001057600080fd5b506004361061007d5760003560e01c80632d3f09f51161005b5780632d3f09f5146101925780632de40ce31461024d57806380edef8e1461026f578063af640d0f146102f25761007d565b80630a42d91f146100825780630ae50a391461010557806319e5bf3a14610188575b600080fd5b61008a610310565b6040518080602001828103825283818151815260200191508051906020019080838360005b838110156100ca5780820151818401526020810190506100af565b50505050905090810190601f1680156100f75780820380516001836020036101000a031916815260200191505b509250505060405180910390f35b61010d6103ae565b6040518080602001828103825283818151815260200191508051906020019080838360005b8381101561014d578082015181840152602081019050610132565b50505050905090810190601f16801561017a5780820380516001836020036101000a031916815260200191505b509250505060405180910390f35b610190610450565b005b61024b600480360360208110156101a857600080fd5b81019080803590602001906401000000008111156101c557600080fd5b8201836020820111156101d757600080fd5b803590602001918460018302840111640100000000831117156101f957600080fd5b91908080601f016020809104026020016040519081016040528093929190818152602001838380828437600081840152601f19601f82011690508083019250505050505050919291929050505061046d565b005b610255610487565b604051808215151515815260200191505060405180910390f35b61027761049a565b6040518080602001828103825283818151815260200191508051906020019080838360005b838110156102b757808201518184015260208101905061029c565b50505050905090810190601f1680156102e45780820380516001836020036101000a031916815260200191505b509250505060405180910390f35b6102fa610538565b6040518082815260200191505060405180910390f35b60018054600181600116156101000203166002900480601f0160208091040260200160405190810160405280929190818152602001828054600181600116156101000203166002900480156103a65780601f1061037b576101008083540402835291602001916103a6565b820191906000526020600020905b81548152906001019060200180831161038957829003601f168201915b505050505081565b606060038054600181600116156101000203166002900480601f0160208091040260200160405190810160405280929190818152602001828054600181600116156101000203166002900480156104465780601f1061041b57610100808354040283529160200191610446565b820191906000526020600020905b81548152906001019060200180831161042957829003601f168201915b5050505050905090565b6001600260006101000a81548160ff021916908315150217905550565b806003908051906020019061048392919061053e565b5050565b600260009054906101000a900460ff1681565b60038054600181600116156101000203166002900480601f0160208091040260200160405190810160405280929190818152602001828054600181600116156101000203166002900480156105305780601f1061050557610100808354040283529160200191610530565b820191906000526020600020905b81548152906001019060200180831161051357829003601f168201915b505050505081565b60005481565b828054600181600116156101000203166002900490600052602060002090601f016020900481019282601f1061057f57805160ff19168380011785556105ad565b828001600101855582156105ad579182015b828111156105ac578251825591602001919060010190610591565b5b5090506105ba91906105be565b5090565b6105e091905b808211156105dc5760008160009055506001016105c4565b5090565b9056fea265627a7a7231582013ac7d7e4bc184e0ca71900a50003bf2a12aafc3ed39a3428fa8e7513a866b0b64736f6c63430005100032",
  "source": "pragma solidity >0.4.2;\r\n\r\ncontract Domain {\r\n\r\n    uint public id;\r\n    string public domain_name;\r\n    bool public registered;\r\n    string public owner_address;\r\n\r\n    constructor (string memory _domain_name) public {\r\n        registered = false;\r\n        owner_address = '';\r\n        domain_name = _domain_name;\r\n    }\r\n\r\n\r\n    function Assign (string memory  _address) public {\r\n        owner_address = _address;\r\n    }\r\n\r\n    function Register()public{\r\n        registered = true;\r\n    }\r\n\r\n    function GetOwner() public view returns(string memory){\r\n        return owner_address;\r\n    }\r\n\r\n}",
  "sourcePath": "D:\\GitHub\\YL trial\\contracts\\Domain.sol",
  "compiler": {
    "name": "solc",
    "version": "0.5.16+commit.9c3226ce.Emscripten.clang"
  },
  "schemaVersion": "3.3.1",
  "updatedAt": "2020-10-29T14:49:36.072Z",
  "devdoc": {
    "methods": {}
  },
  "userdoc": {
    "methods": {}
  }
}