{
  "contractName": "Election",
  "abi": [
    {
      "inputs": [],
      "payable": false,
      "stateMutability": "nonpayable",
      "type": "constructor"
    },
    {
      "constant": true,
      "inputs": [],
      "name": "candidate",
      "outputs": [
        {
          "internalType": "string",
          "name": "",
          "type": "string"
        }
      ],
      "payable": false,
      "stateMutability": "view",
      "type": "function"
    },
    {
      "constant": true,
      "inputs": [],
      "name": "votes",
      "outputs": [
        {
          "internalType": "uint256",
          "name": "",
          "type": "uint256"
        }
      ],
      "payable": false,
      "stateMutability": "view",
      "type": "function"
    }
  ],
  "bytecode": "0x608060405234801561001057600080fd5b506040518060400160405280600d81526020017f43616e64696461746520414243000000000000000000000000000000000000008152506000908051906020019061005c92919061006a565b50607b60018190555061010f565b828054600181600116156101000203166002900490600052602060002090601f016020900481019282601f106100ab57805160ff19168380011785556100d9565b828001600101855582156100d9579182015b828111156100d85782518255916020019190600101906100bd565b5b5090506100e691906100ea565b5090565b61010c91905b808211156101085760008160009055506001016100f0565b5090565b90565b6101b58061011e6000396000f3fe608060405234801561001057600080fd5b50600436106100365760003560e01c80636c8381f81461003b578063e168c3ec146100be575b600080fd5b6100436100dc565b6040518080602001828103825283818151815260200191508051906020019080838360005b83811015610083578082015181840152602081019050610068565b50505050905090810190601f1680156100b05780820380516001836020036101000a031916815260200191505b509250505060405180910390f35b6100c661017a565b6040518082815260200191505060405180910390f35b60008054600181600116156101000203166002900480601f0160208091040260200160405190810160405280929190818152602001828054600181600116156101000203166002900480156101725780601f1061014757610100808354040283529160200191610172565b820191906000526020600020905b81548152906001019060200180831161015557829003601f168201915b505050505081565b6001548156fea265627a7a72315820c084c545529a1222725e3390a30893c318f946f555a40b69a51b08a8498cbe8a64736f6c63430005100032",
  "source": "pragma solidity >0.4.2;\r\n\r\ncontract Election {\r\n\r\n    // store candidate, read candidiat, constructor\r\n\r\n    string public candidate;\r\n    uint public votes;\r\n\r\n    constructor () public {\r\n        candidate = \"Candidate ABC\";\r\n        votes = 123;\r\n    }\r\n\r\n    // struct Candidate{\r\n    //     uint id;\r\n    //     uint votes;\r\n    //     string name;\r\n    // }\r\n\r\n}",
  "sourcePath": "D:/GitHub/YL trial/contracts/election.sol",
  "compiler": {
    "name": "solc",
    "version": "0.5.16+commit.9c3226ce.Emscripten.clang"
  },
  "schemaVersion": "3.3.1",
  "updatedAt": "2020-10-29T12:00:21.801Z",
  "networkType": "ethereum",
  "devdoc": {
    "methods": {}
  },
  "userdoc": {
    "methods": {}
  }
}